{
  "address": "0xCD31F5Dc6E2fbDE1993bc50c43cB1b4EA6e7b0Af",
  "abi": [
    {
      "inputs": [
        {
          "internalType": "uint32",
          "name": "tokenId",
          "type": "uint32"
        },
        {
          "internalType": "address",
          "name": "erc721Destination",
          "type": "address"
        }
      ],
      "stateMutability": "nonpayable",
      "type": "constructor"
    },
    {
      "anonymous": false,
      "inputs": [
        {
          "indexed": true,
          "internalType": "address",
          "name": "sender",
          "type": "address"
        },
        {
          "indexed": false,
          "internalType": "uint256",
          "name": "amount",
          "type": "uint256"
        },
        {
          "indexed": false,
          "internalType": "uint256",
          "name": "newTotal",
          "type": "uint256"
        }
      ],
      "name": "Deposit",
      "type": "event"
    },
    {
      "anonymous": false,
      "inputs": [
        {
          "indexed": true,
          "internalType": "address",
          "name": "sender",
          "type": "address"
        },
        {
          "indexed": true,
          "internalType": "address",
          "name": "changee",
          "type": "address"
        },
        {
          "indexed": false,
          "internalType": "bool",
          "name": "value",
          "type": "bool"
        }
      ],
      "name": "PermissionChange",
      "type": "event"
    },
    {
      "anonymous": false,
      "inputs": [
        {
          "indexed": true,
          "internalType": "address",
          "name": "from",
          "type": "address"
        },
        {
          "indexed": true,
          "internalType": "address",
          "name": "to",
          "type": "address"
        }
      ],
      "name": "TransferedOwnership",
      "type": "event"
    },
    {
      "anonymous": false,
      "inputs": [
        {
          "indexed": true,
          "internalType": "address",
          "name": "sender",
          "type": "address"
        },
        {
          "indexed": false,
          "internalType": "uint256",
          "name": "amount",
          "type": "uint256"
        },
        {
          "indexed": false,
          "internalType": "uint256",
          "name": "newTotal",
          "type": "uint256"
        }
      ],
      "name": "Withdraw",
      "type": "event"
    },
    {
      "inputs": [
        {
          "internalType": "address",
          "name": "",
          "type": "address"
        }
      ],
      "name": "approved",
      "outputs": [
        {
          "internalType": "bool",
          "name": "",
          "type": "bool"
        }
      ],
      "stateMutability": "view",
      "type": "function"
    },
    {
      "inputs": [],
      "name": "currentTokenId",
      "outputs": [
        {
          "internalType": "uint32",
          "name": "",
          "type": "uint32"
        }
      ],
      "stateMutability": "view",
      "type": "function"
    },
    {
      "inputs": [],
      "name": "deployer",
      "outputs": [
        {
          "internalType": "address",
          "name": "",
          "type": "address"
        }
      ],
      "stateMutability": "view",
      "type": "function"
    },
    {
      "inputs": [],
      "name": "deposit",
      "outputs": [],
      "stateMutability": "payable",
      "type": "function"
    },
    {
      "inputs": [],
      "name": "erc721",
      "outputs": [
        {
          "internalType": "address",
          "name": "",
          "type": "address"
        }
      ],
      "stateMutability": "view",
      "type": "function"
    },
    {
      "inputs": [],
      "name": "getBalance",
      "outputs": [
        {
          "internalType": "uint256",
          "name": "",
          "type": "uint256"
        }
      ],
      "stateMutability": "view",
      "type": "function"
    },
    {
      "inputs": [],
      "name": "getIntegrity",
      "outputs": [
        {
          "internalType": "address",
          "name": "",
          "type": "address"
        },
        {
          "internalType": "address",
          "name": "",
          "type": "address"
        },
        {
          "internalType": "uint256",
          "name": "",
          "type": "uint256"
        },
        {
          "internalType": "bytes",
          "name": "",
          "type": "bytes"
        },
        {
          "internalType": "bytes4",
          "name": "",
          "type": "bytes4"
        }
      ],
      "stateMutability": "view",
      "type": "function"
    },
    {
      "inputs": [
        {
          "internalType": "address",
          "name": "addr",
          "type": "address"
        }
      ],
      "name": "isAuthenticated",
      "outputs": [
        {
          "internalType": "bool",
          "name": "",
          "type": "bool"
        }
      ],
      "stateMutability": "view",
      "type": "function"
    },
    {
      "inputs": [
        {
          "internalType": "address[]",
          "name": "addrs",
          "type": "address[]"
        }
      ],
      "name": "multiApprove",
      "outputs": [],
      "stateMutability": "nonpayable",
      "type": "function"
    },
    {
      "inputs": [
        {
          "internalType": "address",
          "name": "",
          "type": "address"
        },
        {
          "internalType": "address",
          "name": "",
          "type": "address"
        },
        {
          "internalType": "uint256",
          "name": "",
          "type": "uint256"
        },
        {
          "internalType": "bytes",
          "name": "",
          "type": "bytes"
        }
      ],
      "name": "onERC721Received",
      "outputs": [
        {
          "internalType": "bytes4",
          "name": "",
          "type": "bytes4"
        }
      ],
      "stateMutability": "pure",
      "type": "function"
    },
    {
      "inputs": [
        {
          "internalType": "address",
          "name": "addr",
          "type": "address"
        },
        {
          "internalType": "bool",
          "name": "value",
          "type": "bool"
        }
      ],
      "name": "setPrivilages",
      "outputs": [],
      "stateMutability": "nonpayable",
      "type": "function"
    },
    {
      "inputs": [
        {
          "internalType": "address",
          "name": "erc721Destination",
          "type": "address"
        },
        {
          "internalType": "address",
          "name": "to",
          "type": "address"
        },
        {
          "internalType": "uint256",
          "name": "tokenId",
          "type": "uint256"
        }
      ],
      "name": "transfer",
      "outputs": [],
      "stateMutability": "nonpayable",
      "type": "function"
    },
    {
      "inputs": [
        {
          "internalType": "address",
          "name": "addr",
          "type": "address"
        }
      ],
      "name": "transferOwnership",
      "outputs": [],
      "stateMutability": "nonpayable",
      "type": "function"
    },
    {
      "inputs": [],
      "name": "transferOwnershipToTokenOwner",
      "outputs": [],
      "stateMutability": "nonpayable",
      "type": "function"
    },
    {
      "inputs": [],
      "name": "walletType",
      "outputs": [
        {
          "internalType": "bytes",
          "name": "",
          "type": "bytes"
        }
      ],
      "stateMutability": "view",
      "type": "function"
    },
    {
      "inputs": [],
      "name": "withdraw",
      "outputs": [],
      "stateMutability": "nonpayable",
      "type": "function"
    }
  ],
  "transactionHash": "0xa5ae092c48b04e73de581f362e6fc529672e59cc61d85bec13f8b0892cbb012b",
  "args": [
    0,
    "0xD6EA806Ee9E4D2B4AE921f2BFf1eB9a448780323"
  ],
  "numDeployments": 1,
  "solcInputHash": "b0f3f5743d043d6d0147204e57adad5c",
  "bytecode": "0x60c0604052600660808190526515d85b1b195d60d21b60a0908152620000299160039190620000cc565b503480156200003757600080fd5b5060405162001097380380620010978339810160408190526200005a9162000172565b600080546001600160a01b03199081163390811783558252600260205260408220805460ff19166001908117909155829055600480546001600160a01b039490941663ffffffff909516600160a01b029091166001600160c01b03199093169290921792909217905560055562000201565b828054620000da90620001c4565b90600052602060002090601f016020900481019282620000fe576000855562000149565b82601f106200011957805160ff191683800117855562000149565b8280016001018555821562000149579182015b82811115620001495782518255916020019190600101906200012c565b50620001579291506200015b565b5090565b5b808211156200015757600081556001016200015c565b600080604083850312156200018657600080fd5b825163ffffffff811681146200019b57600080fd5b60208401519092506001600160a01b0381168114620001b957600080fd5b809150509250929050565b600181811c90821680620001d957607f821691505b60208210811415620001fb57634e487b7160e01b600052602260045260246000fd5b50919050565b610e8680620002116000396000f3fe6080604052600436106100c25760003560e01c80629a9b7b146100c757806310a8c7a91461010557806312065fe014610127578063150b7a02146101455780633ccfd60b1461018a5780635b648b0a1461019f57806388782c9c146101c1578063bca6ce64146101d6578063beabacc81461020e578063d0e30db01461022e578063d15d415014610236578063d49a2a7c14610266578063d5f39488146102c9578063d8b964e6146102e9578063f2fde38b14610319578063fe684c0e14610339575b600080fd5b3480156100d357600080fd5b506004546100eb90600160a01b900463ffffffff1681565b60405163ffffffff90911681526020015b60405180910390f35b34801561011157600080fd5b50610125610120366004610a92565b610359565b005b34801561013357600080fd5b506005546040519081526020016100fc565b34801561015157600080fd5b50610171610160366004610b56565b630a85bd0160e11b95945050505050565b6040516001600160e01b031990911681526020016100fc565b34801561019657600080fd5b506101256103f9565b3480156101ab57600080fd5b506101b46104f2565b6040516100fc9190610c50565b3480156101cd57600080fd5b50610125610580565b3480156101e257600080fd5b506004546101f6906001600160a01b031681565b6040516001600160a01b0390911681526020016100fc565b34801561021a57600080fd5b50610125610229366004610c6a565b6106f3565b610125610833565b34801561024257600080fd5b50610256610251366004610cab565b61089a565b60405190151581526020016100fc565b34801561027257600080fd5b506000546004546040805180820190915260068152651dd85b1b195d60d21b602082015230926001600160a01b031691600160a01b900463ffffffff16906335268a9f60e21b6040516100fc959493929190610cc8565b3480156102d557600080fd5b506000546101f6906001600160a01b031681565b3480156102f557600080fd5b50610256610304366004610cab565b60026020526000908152604090205460ff1681565b34801561032557600080fd5b50610125610334366004610cab565b6108d5565b34801561034557600080fd5b50610125610354366004610d16565b610975565b6000546001600160a01b0316331461038c5760405162461bcd60e51b815260040161038390610d54565b60405180910390fd5b805161039757600080fd5b60005b81518110156103f5576001600260008484815181106103bb576103bb610d7a565b6020908102919091018101516001600160a01b03168252810191909152604001600020805460ff191691151591909117905560010161039a565b5050565b600180600082825461040b9190610d90565b90915550506001546000546001600160a01b031633148061043b57503360009081526002602052604090205460ff165b6104575760405162461bcd60e51b815260040161038390610db6565b60058054600091829055815460405191926001600160a01b039091169183156108fc0291849190818181858888f1935050505015801561049b573d6000803e3d6000fd5b5060055460405133917ff279e6a1f5e320cca91135676d9cb6e44ca8a08c0b88342bcdb1144f6511b568916104d891478252602082015260400190565b60405180910390a25060015481146104ef57600080fd5b50565b600380546104ff90610ddc565b80601f016020809104026020016040519081016040528092919081815260200182805461052b90610ddc565b80156105785780601f1061054d57610100808354040283529160200191610578565b820191906000526020600020905b81548152906001019060200180831161055b57829003601f168201915b505050505081565b60018060008282546105929190610d90565b9091555050600154600480546040516331a9108f60e11b8152600160a01b820463ffffffff16928101929092526000916001600160a01b0390911690636352211e90602401602060405180830381865afa1580156105f4573d6000803e3d6000fd5b505050506040513d601f19601f820116820180604052508101906106189190610e17565b6000549091506001600160a01b03808316911614156106845760405162461bcd60e51b815260206004820152602260248201527f6f776e6572206f662074686520746f6b656e20697320746865206465706c6f7960448201526132b960f11b6064820152608401610383565b336001600160a01b038216146106db5760405162461bcd60e51b815260206004820152601c60248201527b39b2b73232b91036bab9ba103132903a3432903732bb9037bbb732b960211b6044820152606401610383565b6106e4816108d5565b5060015481146104ef57600080fd5b6000546001600160a01b031633148061071b57503360009081526002602052604090205460ff165b6107375760405162461bcd60e51b815260040161038390610db6565b6040513060248201526001600160a01b038381166044830152606482018390526000918291861690829060840160408051601f198184030181529181526020820180516001600160e01b03166317d5759960e31b179052516107999190610e34565b60006040518083038185875af1925050503d80600081146107d6576040519150601f19603f3d011682016040523d82523d6000602084013e6107db565b606091505b50915091508161082c5780516108235760405162461bcd60e51b815260206004820152600d60248201526c18d85b1b081c995d995c9d1959609a1b6044820152606401610383565b80518082602001fd5b5050505050565b60018060008282546108459190610d90565b9091555050600154348060055461085c9190610d90565b600581905560405133917f90890809c654f11d6e72a28fa60149770a0d11ec6c92319d6ceb2bb0a4ea1a15916104d891858252602082015260400190565b600080546001600160a01b03838116911614806108cf57506001600160a01b03821660009081526002602052604090205460ff165b92915050565b6000546001600160a01b031633146108ff5760405162461bcd60e51b815260040161038390610d54565b600080546001600160a01b03908116825260026020526040808320805460ff1990811690915583546001600160a01b03191692851692831784558284528184208054909116600117905551909133917f93091b3f3cd424efabc74e181f3799f3476ed758412561ed3b29515c51f567529190a350565b6000546001600160a01b0316331461099f5760405162461bcd60e51b815260040161038390610d54565b6000546001600160a01b03838116911614156109f65760405162461bcd60e51b815260206004820152601660248201527531b0b73737ba1036b7b234b33c903232b83637bcb2b960511b6044820152606401610383565b6001600160a01b038216600081815260026020908152604091829020805460ff1916851515908117909155915191825233917ff38de818d000d07d091732dd783c6855722d7bc1934d92b7635133289d341695910160405180910390a35050565b634e487b7160e01b600052604160045260246000fd5b6001600160a01b03811681146104ef57600080fd5b8035610a8d81610a6d565b919050565b60006020808385031215610aa557600080fd5b82356001600160401b0380821115610abc57600080fd5b818501915085601f830112610ad057600080fd5b813581811115610ae257610ae2610a57565b8060051b604051601f19603f83011681018181108582111715610b0757610b07610a57565b604052918252848201925083810185019188831115610b2557600080fd5b938501935b82851015610b4a57610b3b85610a82565b84529385019392850192610b2a565b98975050505050505050565b600080600080600060808688031215610b6e57600080fd5b8535610b7981610a6d565b94506020860135610b8981610a6d565b93506040860135925060608601356001600160401b0380821115610bac57600080fd5b818801915088601f830112610bc057600080fd5b813581811115610bcf57600080fd5b896020828501011115610be157600080fd5b9699959850939650602001949392505050565b60005b83811015610c0f578181015183820152602001610bf7565b83811115610c1e576000848401525b50505050565b60008151808452610c3c816020860160208601610bf4565b601f01601f19169290920160200192915050565b602081526000610c636020830184610c24565b9392505050565b600080600060608486031215610c7f57600080fd5b8335610c8a81610a6d565b92506020840135610c9a81610a6d565b929592945050506040919091013590565b600060208284031215610cbd57600080fd5b8135610c6381610a6d565b6001600160a01b038681168252851660208201526040810184905260a060608201819052600090610cfb90830185610c24565b905063ffffffff60e01b831660808301529695505050505050565b60008060408385031215610d2957600080fd5b8235610d3481610a6d565b915060208301358015158114610d4957600080fd5b809150509250929050565b6020808252600c908201526b3737ba103232b83637bcb2b960a11b604082015260600190565b634e487b7160e01b600052603260045260246000fd5b60008219821115610db157634e487b7160e01b600052601160045260246000fd5b500190565b6020808252600c908201526b1b9bdd08185c1c1c9bdd995960a21b604082015260600190565b600181811c90821680610df057607f821691505b60208210811415610e1157634e487b7160e01b600052602260045260246000fd5b50919050565b600060208284031215610e2957600080fd5b8151610c6381610a6d565b60008251610e46818460208701610bf4565b919091019291505056fea264697066735822122018751f01069333995d4a9f591735f4e8791b301a20caa880b995d334f286d58e64736f6c634300080c0033",
  "devdoc": {
    "kind": "dev",
    "methods": {
      "constructor": {
        "details": "makes the owner field the owner of the contract not the deployer.",
        "params": {
          "erc721Destination": "the main ERC721 contract",
          "tokenId": "the tokenId from the main ERC721 contract"
        }
      }
    },
    "version": 1
  },
  "userdoc": {
    "events": {
      "Deposit(address,uint256,uint256)": {
        "notice": "Fired when a deposit is made"
      },
      "Withdraw(address,uint256,uint256)": {
        "notice": "Fired with a withdraw is made"
      }
    },
    "kind": "user",
    "methods": {
      "constructor": {
        "notice": "Creates new wallet contract, tokenId refers to the ERC721 contract this wallet was spawned from."
      },
      "currentTokenId()": {
        "notice": "the main ERC721 contract this wallet is attached too"
      },
      "deposit()": {
        "notice": "Allows anyone to deposit ERC20 into this wallet."
      },
      "erc721()": {
        "notice": "the location of the main ERC721 contract this wallet was spawned from;"
      },
      "getBalance()": {
        "notice": "Returns the balance of the wallet"
      },
      "getIntegrity()": {
        "notice": "used by InfinityMintLinker to verify this contract is the one it says"
      },
      "onERC721Received(address,address,uint256,bytes)": {
        "notice": "Opts in this contract to receipt ERC721"
      },
      "transferOwnershipToTokenOwner()": {
        "notice": "This can be called by the new token owner at any time and it will match the current owner of the contract to the tokenId, in all cases the wallet will still be attached to the owner of the tokenId and when its not it will simply move over permissions of the contract to the new owner"
      },
      "walletType()": {
        "notice": "the version type of wallet this is"
      },
      "withdraw()": {
        "notice": "Allows you to withdraw"
      }
    },
    "version": 1
  },
  "storageLayout": {
    "storage": [
      {
        "astId": 458,
        "contract": "contracts/InfinityMintWallet.sol:InfinityMintWallet",
        "label": "deployer",
        "offset": 0,
        "slot": "0",
        "type": "t_address"
      },
      {
        "astId": 461,
        "contract": "contracts/InfinityMintWallet.sol:InfinityMintWallet",
        "label": "executionCount",
        "offset": 0,
        "slot": "1",
        "type": "t_uint256"
      },
      {
        "astId": 465,
        "contract": "contracts/InfinityMintWallet.sol:InfinityMintWallet",
        "label": "approved",
        "offset": 0,
        "slot": "2",
        "type": "t_mapping(t_address,t_bool)"
      },
      {
        "astId": 7237,
        "contract": "contracts/InfinityMintWallet.sol:InfinityMintWallet",
        "label": "walletType",
        "offset": 0,
        "slot": "3",
        "type": "t_bytes_storage"
      },
      {
        "astId": 7240,
        "contract": "contracts/InfinityMintWallet.sol:InfinityMintWallet",
        "label": "erc721",
        "offset": 0,
        "slot": "4",
        "type": "t_address"
      },
      {
        "astId": 7243,
        "contract": "contracts/InfinityMintWallet.sol:InfinityMintWallet",
        "label": "currentTokenId",
        "offset": 20,
        "slot": "4",
        "type": "t_uint32"
      },
      {
        "astId": 7246,
        "contract": "contracts/InfinityMintWallet.sol:InfinityMintWallet",
        "label": "walletValue",
        "offset": 0,
        "slot": "5",
        "type": "t_uint256"
      }
    ],
    "types": {
      "t_address": {
        "encoding": "inplace",
        "label": "address",
        "numberOfBytes": "20"
      },
      "t_bool": {
        "encoding": "inplace",
        "label": "bool",
        "numberOfBytes": "1"
      },
      "t_bytes_storage": {
        "encoding": "bytes",
        "label": "bytes",
        "numberOfBytes": "32"
      },
      "t_mapping(t_address,t_bool)": {
        "encoding": "mapping",
        "key": "t_address",
        "label": "mapping(address => bool)",
        "numberOfBytes": "32",
        "value": "t_bool"
      },
      "t_uint256": {
        "encoding": "inplace",
        "label": "uint256",
        "numberOfBytes": "32"
      },
      "t_uint32": {
        "encoding": "inplace",
        "label": "uint32",
        "numberOfBytes": "4"
      }
    }
  }
}