{
  "address": "0x242BEbAcd80CF66cd51c71436968A286E5522034",
  "abi": [
    {
      "inputs": [
        {
          "internalType": "string",
          "name": "tokenName",
          "type": "string"
        },
        {
          "internalType": "string",
          "name": "tokenSymbol",
          "type": "string"
        },
        {
          "internalType": "address",
          "name": "storageContract",
          "type": "address"
        },
        {
          "internalType": "address",
          "name": "valuesContract",
          "type": "address"
        },
        {
          "internalType": "address",
          "name": "minterContract",
          "type": "address"
        },
        {
          "internalType": "address",
          "name": "royaltyContract",
          "type": "address"
        }
      ],
      "stateMutability": "nonpayable",
      "type": "constructor"
    },
    {
      "anonymous": false,
      "inputs": [
        {
          "indexed": true,
          "internalType": "address",
          "name": "owner",
          "type": "address"
        },
        {
          "indexed": true,
          "internalType": "address",
          "name": "approved",
          "type": "address"
        },
        {
          "indexed": true,
          "internalType": "uint256",
          "name": "tokenId",
          "type": "uint256"
        }
      ],
      "name": "Approval",
      "type": "event"
    },
    {
      "anonymous": false,
      "inputs": [
        {
          "indexed": true,
          "internalType": "address",
          "name": "owner",
          "type": "address"
        },
        {
          "indexed": true,
          "internalType": "address",
          "name": "operator",
          "type": "address"
        },
        {
          "indexed": false,
          "internalType": "bool",
          "name": "approved",
          "type": "bool"
        }
      ],
      "name": "ApprovalForAll",
      "type": "event"
    },
    {
      "anonymous": false,
      "inputs": [
        {
          "indexed": true,
          "internalType": "address",
          "name": "sender",
          "type": "address"
        },
        {
          "indexed": true,
          "internalType": "address",
          "name": "changee",
          "type": "address"
        },
        {
          "indexed": false,
          "internalType": "bool",
          "name": "value",
          "type": "bool"
        }
      ],
      "name": "PermissionChange",
      "type": "event"
    },
    {
      "anonymous": false,
      "inputs": [
        {
          "indexed": false,
          "internalType": "uint32",
          "name": "tokenId",
          "type": "uint32"
        },
        {
          "indexed": false,
          "internalType": "bytes",
          "name": "encodedData",
          "type": "bytes"
        },
        {
          "indexed": true,
          "internalType": "address",
          "name": "sender",
          "type": "address"
        }
      ],
      "name": "TokenMinted",
      "type": "event"
    },
    {
      "anonymous": false,
      "inputs": [
        {
          "indexed": true,
          "internalType": "address",
          "name": "sender",
          "type": "address"
        },
        {
          "indexed": false,
          "internalType": "uint256",
          "name": "previewCount",
          "type": "uint256"
        }
      ],
      "name": "TokenPreviewComplete",
      "type": "event"
    },
    {
      "anonymous": false,
      "inputs": [
        {
          "indexed": false,
          "internalType": "uint32",
          "name": "tokenId",
          "type": "uint32"
        },
        {
          "indexed": false,
          "internalType": "bytes",
          "name": "encodedData",
          "type": "bytes"
        },
        {
          "indexed": true,
          "internalType": "address",
          "name": "sender",
          "type": "address"
        }
      ],
      "name": "TokenPreviewMinted",
      "type": "event"
    },
    {
      "anonymous": false,
      "inputs": [
        {
          "indexed": true,
          "internalType": "address",
          "name": "from",
          "type": "address"
        },
        {
          "indexed": true,
          "internalType": "address",
          "name": "to",
          "type": "address"
        },
        {
          "indexed": true,
          "internalType": "uint256",
          "name": "tokenId",
          "type": "uint256"
        }
      ],
      "name": "Transfer",
      "type": "event"
    },
    {
      "anonymous": false,
      "inputs": [
        {
          "indexed": true,
          "internalType": "address",
          "name": "from",
          "type": "address"
        },
        {
          "indexed": true,
          "internalType": "address",
          "name": "to",
          "type": "address"
        }
      ],
      "name": "TransferedOwnership",
      "type": "event"
    },
    {
      "inputs": [
        {
          "internalType": "address",
          "name": "_to",
          "type": "address"
        },
        {
          "internalType": "uint256",
          "name": "_tokenId",
          "type": "uint256"
        }
      ],
      "name": "approve",
      "outputs": [],
      "stateMutability": "nonpayable",
      "type": "function"
    },
    {
      "inputs": [
        {
          "internalType": "address",
          "name": "",
          "type": "address"
        }
      ],
      "name": "approved",
      "outputs": [
        {
          "internalType": "bool",
          "name": "",
          "type": "bool"
        }
      ],
      "stateMutability": "view",
      "type": "function"
    },
    {
      "inputs": [
        {
          "internalType": "address",
          "name": "_owner",
          "type": "address"
        }
      ],
      "name": "balanceOf",
      "outputs": [
        {
          "internalType": "uint256",
          "name": "",
          "type": "uint256"
        }
      ],
      "stateMutability": "view",
      "type": "function"
    },
    {
      "inputs": [],
      "name": "currentTokenId",
      "outputs": [
        {
          "internalType": "uint32",
          "name": "",
          "type": "uint32"
        }
      ],
      "stateMutability": "view",
      "type": "function"
    },
    {
      "inputs": [],
      "name": "deployer",
      "outputs": [
        {
          "internalType": "address",
          "name": "",
          "type": "address"
        }
      ],
      "stateMutability": "view",
      "type": "function"
    },
    {
      "inputs": [
        {
          "internalType": "uint32",
          "name": "tokenId",
          "type": "uint32"
        }
      ],
      "name": "depositStickerRoyalty",
      "outputs": [],
      "stateMutability": "payable",
      "type": "function"
    },
    {
      "inputs": [
        {
          "internalType": "uint32",
          "name": "royaltyType",
          "type": "uint32"
        }
      ],
      "name": "depositSystemRoyalty",
      "outputs": [],
      "stateMutability": "payable",
      "type": "function"
    },
    {
      "inputs": [
        {
          "internalType": "uint256",
          "name": "_tokenId",
          "type": "uint256"
        }
      ],
      "name": "exists",
      "outputs": [
        {
          "internalType": "bool",
          "name": "",
          "type": "bool"
        }
      ],
      "stateMutability": "view",
      "type": "function"
    },
    {
      "inputs": [
        {
          "internalType": "uint256",
          "name": "_tokenId",
          "type": "uint256"
        }
      ],
      "name": "getApproved",
      "outputs": [
        {
          "internalType": "address",
          "name": "",
          "type": "address"
        }
      ],
      "stateMutability": "view",
      "type": "function"
    },
    {
      "inputs": [],
      "name": "getPreview",
      "outputs": [],
      "stateMutability": "nonpayable",
      "type": "function"
    },
    {
      "inputs": [
        {
          "internalType": "address",
          "name": "receiver",
          "type": "address"
        },
        {
          "internalType": "uint32",
          "name": "pathId",
          "type": "uint32"
        },
        {
          "internalType": "uint32",
          "name": "pathSize",
          "type": "uint32"
        },
        {
          "internalType": "uint32[]",
          "name": "colours",
          "type": "uint32[]"
        },
        {
          "internalType": "bytes",
          "name": "mintData",
          "type": "bytes"
        },
        {
          "internalType": "uint32[]",
          "name": "assets",
          "type": "uint32[]"
        },
        {
          "internalType": "string[]",
          "name": "names",
          "type": "string[]"
        }
      ],
      "name": "implicitMint",
      "outputs": [],
      "stateMutability": "nonpayable",
      "type": "function"
    },
    {
      "inputs": [
        {
          "internalType": "address",
          "name": "_owner",
          "type": "address"
        },
        {
          "internalType": "address",
          "name": "_operator",
          "type": "address"
        }
      ],
      "name": "isApprovedForAll",
      "outputs": [
        {
          "internalType": "bool",
          "name": "",
          "type": "bool"
        }
      ],
      "stateMutability": "view",
      "type": "function"
    },
    {
      "inputs": [
        {
          "internalType": "address",
          "name": "addr",
          "type": "address"
        },
        {
          "internalType": "uint256",
          "name": "tokenId",
          "type": "uint256"
        }
      ],
      "name": "isApprovedOrOwner",
      "outputs": [
        {
          "internalType": "bool",
          "name": "",
          "type": "bool"
        }
      ],
      "stateMutability": "view",
      "type": "function"
    },
    {
      "inputs": [
        {
          "internalType": "address",
          "name": "addr",
          "type": "address"
        }
      ],
      "name": "isAuthenticated",
      "outputs": [
        {
          "internalType": "bool",
          "name": "",
          "type": "bool"
        }
      ],
      "stateMutability": "view",
      "type": "function"
    },
    {
      "inputs": [],
      "name": "mint",
      "outputs": [],
      "stateMutability": "payable",
      "type": "function"
    },
    {
      "inputs": [
        {
          "internalType": "bytes",
          "name": "data",
          "type": "bytes"
        }
      ],
      "name": "mintArguments",
      "outputs": [],
      "stateMutability": "payable",
      "type": "function"
    },
    {
      "inputs": [
        {
          "internalType": "uint32",
          "name": "index",
          "type": "uint32"
        }
      ],
      "name": "mintPreview",
      "outputs": [],
      "stateMutability": "payable",
      "type": "function"
    },
    {
      "inputs": [],
      "name": "minterController",
      "outputs": [
        {
          "internalType": "contract Minter",
          "name": "",
          "type": "address"
        }
      ],
      "stateMutability": "view",
      "type": "function"
    },
    {
      "inputs": [],
      "name": "mintsEnabled",
      "outputs": [
        {
          "internalType": "bool",
          "name": "",
          "type": "bool"
        }
      ],
      "stateMutability": "view",
      "type": "function"
    },
    {
      "inputs": [
        {
          "internalType": "address[]",
          "name": "addrs",
          "type": "address[]"
        }
      ],
      "name": "multiApprove",
      "outputs": [],
      "stateMutability": "nonpayable",
      "type": "function"
    },
    {
      "inputs": [],
      "name": "name",
      "outputs": [
        {
          "internalType": "string",
          "name": "",
          "type": "string"
        }
      ],
      "stateMutability": "view",
      "type": "function"
    },
    {
      "inputs": [
        {
          "internalType": "uint256",
          "name": "_tokenId",
          "type": "uint256"
        }
      ],
      "name": "ownerOf",
      "outputs": [
        {
          "internalType": "address",
          "name": "",
          "type": "address"
        }
      ],
      "stateMutability": "view",
      "type": "function"
    },
    {
      "inputs": [],
      "name": "royaltyController",
      "outputs": [
        {
          "internalType": "contract Royalty",
          "name": "",
          "type": "address"
        }
      ],
      "stateMutability": "view",
      "type": "function"
    },
    {
      "inputs": [
        {
          "internalType": "address",
          "name": "_from",
          "type": "address"
        },
        {
          "internalType": "address",
          "name": "_to",
          "type": "address"
        },
        {
          "internalType": "uint256",
          "name": "_tokenId",
          "type": "uint256"
        }
      ],
      "name": "safeTransferFrom",
      "outputs": [],
      "stateMutability": "nonpayable",
      "type": "function"
    },
    {
      "inputs": [
        {
          "internalType": "address",
          "name": "_from",
          "type": "address"
        },
        {
          "internalType": "address",
          "name": "_to",
          "type": "address"
        },
        {
          "internalType": "uint256",
          "name": "_tokenId",
          "type": "uint256"
        },
        {
          "internalType": "bytes",
          "name": "_data",
          "type": "bytes"
        }
      ],
      "name": "safeTransferFrom",
      "outputs": [],
      "stateMutability": "nonpayable",
      "type": "function"
    },
    {
      "inputs": [
        {
          "internalType": "address",
          "name": "_operator",
          "type": "address"
        },
        {
          "internalType": "bool",
          "name": "_approved",
          "type": "bool"
        }
      ],
      "name": "setApprovalForAll",
      "outputs": [],
      "stateMutability": "nonpayable",
      "type": "function"
    },
    {
      "inputs": [
        {
          "internalType": "address",
          "name": "minterContract",
          "type": "address"
        }
      ],
      "name": "setMinterController",
      "outputs": [],
      "stateMutability": "nonpayable",
      "type": "function"
    },
    {
      "inputs": [
        {
          "internalType": "bool",
          "name": "value",
          "type": "bool"
        }
      ],
      "name": "setMintsEnabled",
      "outputs": [],
      "stateMutability": "nonpayable",
      "type": "function"
    },
    {
      "inputs": [
        {
          "internalType": "address",
          "name": "addr",
          "type": "address"
        },
        {
          "internalType": "bool",
          "name": "value",
          "type": "bool"
        }
      ],
      "name": "setPrivilages",
      "outputs": [],
      "stateMutability": "nonpayable",
      "type": "function"
    },
    {
      "inputs": [
        {
          "internalType": "address",
          "name": "royaltyContract",
          "type": "address"
        }
      ],
      "name": "setRoyaltyController",
      "outputs": [],
      "stateMutability": "nonpayable",
      "type": "function"
    },
    {
      "inputs": [
        {
          "internalType": "address",
          "name": "storageContract",
          "type": "address"
        }
      ],
      "name": "setStorageController",
      "outputs": [],
      "stateMutability": "nonpayable",
      "type": "function"
    },
    {
      "inputs": [
        {
          "internalType": "uint32",
          "name": "tokenId",
          "type": "uint32"
        },
        {
          "internalType": "string",
          "name": "json",
          "type": "string"
        }
      ],
      "name": "setTokenURI",
      "outputs": [],
      "stateMutability": "nonpayable",
      "type": "function"
    },
    {
      "inputs": [],
      "name": "storageController",
      "outputs": [
        {
          "internalType": "contract InfinityMintStorage",
          "name": "",
          "type": "address"
        }
      ],
      "stateMutability": "view",
      "type": "function"
    },
    {
      "inputs": [
        {
          "internalType": "bytes4",
          "name": "interfaceId",
          "type": "bytes4"
        }
      ],
      "name": "supportsInterface",
      "outputs": [
        {
          "internalType": "bool",
          "name": "",
          "type": "bool"
        }
      ],
      "stateMutability": "view",
      "type": "function"
    },
    {
      "inputs": [],
      "name": "symbol",
      "outputs": [
        {
          "internalType": "string",
          "name": "",
          "type": "string"
        }
      ],
      "stateMutability": "view",
      "type": "function"
    },
    {
      "inputs": [],
      "name": "tokenPrice",
      "outputs": [
        {
          "internalType": "uint256",
          "name": "",
          "type": "uint256"
        }
      ],
      "stateMutability": "view",
      "type": "function"
    },
    {
      "inputs": [
        {
          "internalType": "uint256",
          "name": "tokenId",
          "type": "uint256"
        }
      ],
      "name": "tokenURI",
      "outputs": [
        {
          "internalType": "string",
          "name": "result",
          "type": "string"
        }
      ],
      "stateMutability": "view",
      "type": "function"
    },
    {
      "inputs": [],
      "name": "totalSupply",
      "outputs": [
        {
          "internalType": "uint256",
          "name": "",
          "type": "uint256"
        }
      ],
      "stateMutability": "view",
      "type": "function"
    },
    {
      "inputs": [
        {
          "internalType": "uint256[]",
          "name": "tokenIds",
          "type": "uint256[]"
        },
        {
          "internalType": "address",
          "name": "destination",
          "type": "address"
        }
      ],
      "name": "transferBatch",
      "outputs": [],
      "stateMutability": "nonpayable",
      "type": "function"
    },
    {
      "inputs": [
        {
          "internalType": "address",
          "name": "_from",
          "type": "address"
        },
        {
          "internalType": "address",
          "name": "_to",
          "type": "address"
        },
        {
          "internalType": "uint256",
          "name": "_tokenId",
          "type": "uint256"
        }
      ],
      "name": "transferFrom",
      "outputs": [],
      "stateMutability": "nonpayable",
      "type": "function"
    },
    {
      "inputs": [
        {
          "internalType": "address",
          "name": "addr",
          "type": "address"
        }
      ],
      "name": "transferOwnership",
      "outputs": [],
      "stateMutability": "nonpayable",
      "type": "function"
    },
    {
      "inputs": [],
      "name": "valuesController",
      "outputs": [
        {
          "internalType": "contract InfinityMintValues",
          "name": "",
          "type": "address"
        }
      ],
      "stateMutability": "view",
      "type": "function"
    },
    {
      "inputs": [],
      "name": "withdraw",
      "outputs": [],
      "stateMutability": "nonpayable",
      "type": "function"
    }
  ],
  "transactionHash": "0xfc3ecf6b73cd1086949d5af14bccb166b2f95e2f7fb7878ce836feab36785190",
  "args": [
    "AWEdacity🎫Ticket",
    "🎫",
    "0x253d9d729f6e775E283fEbf4Fc1329d43Da5f0Ac",
    "0x2d65a808DBB7F6fF5d7815F7c0D26cb0B7d8149e",
    "0xda6edBB56D7DfC282FA7DbEA658239801D579c1B",
    "0xEE88A119Aed4f87097A8d3855c45A3690386c6cC"
  ],
  "numDeployments": 1,
  "solcInputHash": "b0f3f5743d043d6d0147204e57adad5c",
  "bytecode": "0x60806040523480156200001157600080fd5b506040516200537238038062005372833981016040819052620000349162000276565b8551869086906200004d906005906020850190620000e6565b50805162000063906006906020840190620000e6565b505060078054336001600160a01b031991821681179092556000918252600960205260408220805460ff19166001179055600891909155600a805482166001600160a01b03978816179055600c805482169587169590951790945550600d80548416918516919091179055600b8054909216921691909117905550620003669050565b828054620000f49062000329565b90600052602060002090601f01602090048101928262000118576000855562000163565b82601f106200013357805160ff191683800117855562000163565b8280016001018555821562000163579182015b828111156200016357825182559160200191906001019062000146565b506200017192915062000175565b5090565b5b8082111562000171576000815560010162000176565b634e487b7160e01b600052604160045260246000fd5b600082601f830112620001b457600080fd5b81516001600160401b0380821115620001d157620001d16200018c565b604051601f8301601f19908116603f01168101908282118183101715620001fc57620001fc6200018c565b816040528381526020925086838588010111156200021957600080fd5b600091505b838210156200023d57858201830151818301840152908201906200021e565b838211156200024f5760008385830101525b9695505050505050565b80516001600160a01b03811681146200027157600080fd5b919050565b60008060008060008060c087890312156200029057600080fd5b86516001600160401b0380821115620002a857600080fd5b620002b68a838b01620001a2565b97506020890151915080821115620002cd57600080fd5b50620002dc89828a01620001a2565b955050620002ed6040880162000259565b9350620002fd6060880162000259565b92506200030d6080880162000259565b91506200031d60a0880162000259565b90509295509295509295565b600181811c908216806200033e57607f821691505b602082108114156200036057634e487b7160e01b600052602260045260246000fd5b50919050565b614ffc80620003766000396000f3fe6080604052600436106101fb5760003560e01c80634c739476116101145780634c7394761461048d5780634f558e79146104ad5780636352211e146104cd5780636bb54df2146104ed57806370a08231146105005780637817d7c0146105365780637ff9b596146105575780638d6900a41461056c57806395d89b411461058c578063a22cb465146105a1578063a2d6b3c5146105c1578063b88d4fde146105e1578063c87b56dd14610601578063c97caf1f14610621578063d15d415014610641578063d5f3948814610661578063d8b964e614610681578063e985e9c5146106b1578063ec2b46c3146106d1578063f107f856146106f1578063f2fde38b14610711578063fe684c0e1461073157600080fd5b80629a9b7b1461020057806301ffc9a71461023e5780630202def11461026e57806304d5c3911461029057806306fdde03146102a3578063081812fc146102c5578063095ea7b3146102f25780630c380cf014610312578063105c48131461033257806310a8c7a91461035257806311ed8c31146103725780631249c58b1461039257806318160ddd1461039a5780631dc9e28a146103bd5780631ff87064146103d057806323b872dd146103f05780632edc48571461041057806339e27d82146104255780633ccfd60b1461043857806342842e0e1461044d578063430c20811461046d575b600080fd5b34801561020c57600080fd5b50600d5461022490600160a01b900463ffffffff1681565b60405163ffffffff90911681526020015b60405180910390f35b34801561024a57600080fd5b5061025e610259366004613e61565b610751565b6040519015158152602001610235565b34801561027a57600080fd5b5061028e610289366004613f3c565b6107a3565b005b61028e61029e366004614000565b610840565b3480156102af57600080fd5b506102b8610b87565b6040516102359190614075565b3480156102d157600080fd5b506102e56102e0366004614088565b610c19565b60405161023591906140a1565b3480156102fe57600080fd5b5061028e61030d3660046140b5565b610c34565b34801561031e57600080fd5b50600c546102e5906001600160a01b031681565b34801561033e57600080fd5b50600d546102e5906001600160a01b031681565b34801561035e57600080fd5b5061028e61036d3660046140e1565b610d84565b34801561037e57600080fd5b5061028e61038d36600461417a565b610e17565b61028e610e76565b3480156103a657600080fd5b506103af610f85565b604051908152602001610235565b61028e6103cb36600461420f565b610ffa565b3480156103dc57600080fd5b5061028e6103eb366004614243565b61113e565b3480156103fc57600080fd5b5061028e61040b366004614292565b6111d3565b34801561041c57600080fd5b5061028e61134e565b61028e610433366004614000565b611746565b34801561044457600080fd5b5061028e611878565b34801561045957600080fd5b5061028e610468366004614292565b611b27565b34801561047957600080fd5b5061025e6104883660046140b5565b611b42565b34801561049957600080fd5b5061028e6104a836600461417a565b611ba1565b3480156104b957600080fd5b5061025e6104c8366004614088565b611c1a565b3480156104d957600080fd5b506102e56104e8366004614088565b611c37565b61028e6104fb366004614000565b611c9c565b34801561050c57600080fd5b506103af61051b36600461417a565b6001600160a01b031660009081526004602052604090205490565b34801561054257600080fd5b50600d5461025e90600160c01b900460ff1681565b34801561056357600080fd5b506103af611ec2565b34801561057857600080fd5b5061028e6105873660046142e1565b611f0c565b34801561059857600080fd5b506102b8611f6e565b3480156105ad57600080fd5b5061028e6105bc3660046142fe565b611f7d565b3480156105cd57600080fd5b50600b546102e5906001600160a01b031681565b3480156105ed57600080fd5b5061028e6105fc366004614337565b611fea565b34801561060d57600080fd5b506102b861061c366004614088565b611ffc565b34801561062d57600080fd5b5061028e61063c366004614490565b612629565b34801561064d57600080fd5b5061025e61065c36600461417a565b6129bd565b34801561066d57600080fd5b506007546102e5906001600160a01b031681565b34801561068d57600080fd5b5061025e61069c36600461417a565b60096020526000908152604090205460ff1681565b3480156106bd57600080fd5b5061025e6106cc36600461456e565b6129f6565b3480156106dd57600080fd5b50600a546102e5906001600160a01b031681565b3480156106fd57600080fd5b5061028e61070c36600461417a565b612a24565b34801561071d57600080fd5b5061028e61072c36600461417a565b612a9d565b34801561073d57600080fd5b5061028e61074c3660046142fe565b612b43565b60006001600160e01b031982166380ac58cd60e01b148061078257506001600160e01b03198216635b5e139f60e01b145b8061079d57506301ffc9a760e01b6001600160e01b03198316145b92915050565b60208251106108035760405162461bcd60e51b815260206004820152602160248201527f706c656173652073706c697420757020696e746f206368756e6b73206f6620336044820152601960f91b60648201526084015b60405180910390fd5b60005b825181101561083b5761083333838584815181106108265761082661459c565b6020026020010151611b27565b600101610806565b505050565b60016008600082825461085391906145c8565b9091555050600854600a54604051636c51371d60e11b815263ffffffff841660048201526000916001600160a01b03169063d8a26e3a90602401600060405180830381865afa1580156108aa573d6000803e3d6000fd5b505050506040513d6000823e601f3d908101601f191682016040526108d29190810190614782565b600a54604051631f7c4d3760e01b81529192506001600160a01b031690631f7c4d37906109069086906001906004016148c7565b602060405180830381865afa158015610923573d6000803e3d6000fd5b505050506040513d601f19601f8201168201806040525081019061094791906148dd565b61098e5760405162461bcd60e51b81526020600482015260186024820152771cdd1a58dad95c8818dbdb9d1c9858dd081b9bdd081cd95d60421b60448201526064016107fa565b8061010001516001815181106109a6576109a661459c565b60200260200101516001600160a01b03166109be3390565b6001600160a01b031614610a375760405162461bcd60e51b815260206004820152603a60248201527f53656e646572206d7573742062652074686520737469636b657220636f6e747260448201527930b1ba1030ba3a30b1b432b2103a37903a3434b9903a37b5b2b760311b60648201526084016107fa565b341580610a445750606434115b15610b1e57600d5460408051635b6bf64160e01b815290516001600160a01b03909216916304caf36a9134918491635b6bf6419160048083019260209291908290030181865afa158015610a9c573d6000803e3d6000fd5b505050506040513d601f19601f82011682018060405250810190610ac091906148fa565b6040516001600160e01b031960e085901b168152600481019290925260ff166024820152604401600060405180830381600087803b158015610b0157600080fd5b505af1158015610b15573d6000803e3d6000fd5b50505050610b74565b60405162461bcd60e51b815260206004820152602560248201527f76616c756520676976656e206d757374206265206f766572203130302c206f72604482015264207a65726f60d81b60648201526084016107fa565b506008548114610b8357600080fd5b5050565b606060058054610b969061491d565b80601f0160208091040260200160405190810160405280929190818152602001828054610bc29061491d565b8015610c0f5780601f10610be457610100808354040283529160200191610c0f565b820191906000526020600020905b815481529060010190602001808311610bf257829003601f168201915b5050505050905090565b6000908152600260205260409020546001600160a01b031690565b6000610c3f82611c37565b9050806001600160a01b0316836001600160a01b03161415610c9a5760405162461bcd60e51b815260206004820152601460248201527331b0b73737ba1030b8383937bb329037bbb732b960611b60448201526064016107fa565b336001600160a01b0382161480610cb65750610cb681336129f6565b610d285760405162461bcd60e51b815260206004820152603d60248201527f4552433732313a20617070726f76652063616c6c6572206973206e6f7420746f60448201527f6b656e206f776e6572206f7220617070726f76656420666f7220616c6c00000060648201526084016107fa565b60008281526002602052604080822080546001600160a01b0319166001600160a01b0387811691821790925591518593918516917f8c5be1e5ebec7d5bd14f71427d1e84f3dd0314c0f7b2291e5b200ac8c7c3b92591a4505050565b6007546001600160a01b03163314610dae5760405162461bcd60e51b81526004016107fa90614958565b8051610db957600080fd5b60005b8151811015610b8357600160096000848481518110610ddd57610ddd61459c565b6020908102919091018101516001600160a01b03168252810191909152604001600020805460ff1916911515919091179055600101610dbc565b6007546001600160a01b03163314610e415760405162461bcd60e51b81526004016107fa90614958565b6001600160a01b038116610e5457600080fd5b600d80546001600160a01b0319166001600160a01b0392909216919091179055565b600160086000828254610e8991906145c8565b9091555050600854600c546040516206259160e71b81526001600160a01b0390911690630312c88090610ebe9060040161497e565b602060405180830381865afa158015610edb573d6000803e3d6000fd5b505050506040513d601f19601f82011682018060405250810190610eff91906148dd565b15610f5c5760405162461bcd60e51b815260206004820152602760248201527f6d757374206d696e74207769746820627974654d696e7420696e7374656164206044820152661bd9881b5a5b9d60ca1b60648201526084016107fa565b610f7460405180602001604052806000815250612c1e565b6008548114610f8257600080fd5b50565b600c5460405163e7b6dac960e01b81526000916001600160a01b03169063e7b6dac990610fb4906004016149a0565b602060405180830381865afa158015610fd1573d6000803e3d6000fd5b505050506040513d601f19601f82011682018060405250810190610ff591906149c3565b905090565b60016008600082825461100d91906145c8565b9091555050600854600c546040516206259160e71b81526001600160a01b0390911690630312c880906110429060040161497e565b602060405180830381865afa15801561105f573d6000803e3d6000fd5b505050506040513d601f19601f8201168201806040525081019061108391906148dd565b6110df5760405162461bcd60e51b815260206004820152602760248201527f6d757374206d696e742077697468206d696e7420696e7374656164206f6620626044820152661e5d19535a5b9d60ca1b60648201526084016107fa565b81516111275760405162461bcd60e51b81526020600482015260176024820152766c656e677468206f66206279746573206973207a65726f60481b60448201526064016107fa565b61113082612c1e565b6008548114610b8357600080fd5b61114e338363ffffffff16611b42565b6111ad5760405162461bcd60e51b815260206004820152602a60248201527f6973206e6f74204f776e65722c20617070726f766564206f7220617070726f76604482015269195908199bdc88185b1b60b21b60648201526084016107fa565b63ffffffff82166000908152600160209081526040909120825161083b92840190613db2565b6111dd3382611b42565b6112215760405162461bcd60e51b81526020600482015260156024820152743737ba1030b8383937bb32b21037b91037bbb732b960591b60448201526064016107fa565b6001600160a01b0383166112715760405162461bcd60e51b815260206004820152601760248201527673656e64696e6720746f206e756c6c206164647265737360481b60448201526064016107fa565b61127c838383612d56565b600081815260026020908152604080832080546001600160a01b03191690556001600160a01b0386168352600490915281208054600192906112bf9084906149dc565b90915550506001600160a01b03821660009081526004602052604081208054600192906112ed9084906145c8565b909155505060008181526020819052604080822080546001600160a01b0319166001600160a01b0386811691821790925591518493918716917fddf252ad1be2c89b69c2b068fc378daa952ba7f163c4a11628f55a4df523b3ef91a4505050565b6113596000806132c4565b6113cd576040805162461bcd60e51b81526020600482015260248101919091527f6661696c6564206d696e7420636865636b3a206d696e7473206172652064697360448201527f61626c65642c206d696e7473206172652061742061206d617820737570706c7960648201526084016107fa565b600c5460405163e7b6dac960e01b81526000916001600160a01b03169063e7b6dac9906113fc906004016149f3565b602060405180830381865afa158015611419573d6000803e3d6000fd5b505050506040513d601f19601f8201168201806040525081019061143d91906149c3565b116114825760405162461bcd60e51b81526020600482015260156024820152741c1c995d9a595ddcc8185c9948191a5cd8589b1959605a1b60448201526064016107fa565b600a546001600160a01b031663e5725968336040518263ffffffff1660e01b81526004016114b091906140a1565b602060405180830381865afa1580156114cd573d6000803e3d6000fd5b505050506040513d601f19601f820116820180604052508101906114f191906149c3565b42116115605760405162461bcd60e51b815260206004820152603860248201527f706c65617365206d696e74207072657669657773206f72207761697420756e746044820152770696c207072657669657720636f756e7465722069732075760441b60648201526084016107fa565b600b54600d5460408051631a5dad5160e01b8152600160a01b90920463ffffffff166004830152336024830152516000926001600160a01b031691631a5dad51916044808301926020929190829003018187875af11580156115c6573d6000803e3d6000fd5b505050506040513d601f19601f820116820180604052508101906115ea91906149c3565b600c5460405163e7b6dac960e01b815260206004820152601660248201527570726576696577436f6f6c646f776e5365636f6e647360501b60448201529192506000916001600160a01b039091169063e7b6dac990606401602060405180830381865afa15801561165f573d6000803e3d6000fd5b505050506040513d601f19601f8201168201806040525081019061168391906149c3565b90508061168e5750603c5b600a546001600160a01b031663a22d583a336116aa84426145c8565b6040518363ffffffff1660e01b81526004016116c7929190614a19565b600060405180830381600087803b1580156116e157600080fd5b505af11580156116f5573d6000803e3d6000fd5b505050506117003390565b6001600160a01b03167f5714c3f2df77e79db463ef18f304b9c2c6b2502ed4d63b7cfdd9950416c926998360405161173a91815260200190565b60405180910390a25050565b60016008600082825461175991906145c8565b90915550506008543461178f8160096000335b6001600160a01b0316815260208101919091526040016000205460ff16156132c4565b6117d65760405162461bcd60e51b81526020600482015260186024820152773330b4b632b21036b4b73a103b32b934b334b1b0ba34b7b760411b60448201526064016107fa565b600b54600d546040805163137655b160e31b815263ffffffff8781166004830152600160a01b909304909216602483015233604483015251610b74926001600160a01b031691639bb2ad88916064808301926000929190829003018183875af1158015611847573d6000803e3d6000fd5b505050506040513d6000823e601f3d908101601f1916820160405261186f9190810190614782565b33600184613405565b60016008600082825461188b91906145c8565b9091555050600854600d546040516354fe9fd760e01b81526000916001600160a01b0316906354fe9fd7906118c49033906004016140a1565b602060405180830381865afa1580156118e1573d6000803e3d6000fd5b505050506040513d601f19601f8201168201806040525081019061190591906149c3565b9050600081116119505760405162461bcd60e51b81526020600482015260166024820152756e6f2062616c616e636520746f20776974686472617760501b60448201526064016107fa565b600061195c82476149dc565b10156119a65760405162461bcd60e51b815260206004820152601960248201527863616e6e6f74206166666f726420746f20776974686472617760381b60448201526064016107fa565b600d546001600160a01b031663e8953af2336040518263ffffffff1660e01b81526004016119d491906140a1565b6020604051808303816000875af11580156119f3573d6000803e3d6000fd5b505050506040513d601f19601f82011682018060405250810190611a1791906149c3565b905060008111611a7f5760405162461bcd60e51b815260206004820152602d60248201527f76616c75652072657475726e65642066726f6d20726f79616c747920636f6e7460448201526c1c9bdb1b195c881a5cc8189859609a1b60648201526084016107fa565b604051600090339083908381818185875af1925050503d8060008114611ac1576040519150601f19603f3d011682016040523d82523d6000602084013e611ac6565b606091505b5050905080611b175760405162461bcd60e51b815260206004820152601d60248201527f646964206e6f74207472616e73666572207375636365737366756c6c7900000060448201526064016107fa565b50506008548114610f8257600080fd5b61083b83838360405180602001604052806000815250613841565b600080611b4e83611c37565b9050806001600160a01b0316846001600160a01b03161480611b755750611b7581856129f6565b80611b995750836001600160a01b0316611b8e84610c19565b6001600160a01b0316145b949350505050565b6007546001600160a01b0316331480611bc957503360009081526009602052604090205460ff165b611be55760405162461bcd60e51b81526004016107fa90614a32565b6001600160a01b038116611bf857600080fd5b600a80546001600160a01b0319166001600160a01b0392909216919091179055565b6000908152602081905260409020546001600160a01b0316151590565b6000611c4282611c1a565b611c805760405162461bcd60e51b815260206004820152600f60248201526e1a5b9d985b1a59081d1bdad95b9259608a1b60448201526064016107fa565b506000908152602081905260409020546001600160a01b031690565b600160086000828254611caf91906145c8565b90915550506008546007546001600160a01b0316331480611cdf57503360009081526009602052604090205460ff165b611cfb5760405162461bcd60e51b81526004016107fa90614a32565b600d60009054906101000a90046001600160a01b03166001600160a01b0316633a9c021e6040518163ffffffff1660e01b8152600401602060405180830381865afa158015611d4e573d6000803e3d6000fd5b505050506040513d601f19601f82011682018060405250810190611d7291906148fa565b60ff168263ffffffff16148015611e085750600d60009054906101000a90046001600160a01b03166001600160a01b0316635b6bf6416040518163ffffffff1660e01b8152600401602060405180830381865afa158015611dd7573d6000803e3d6000fd5b505050506040513d601f19601f82011682018060405250810190611dfb91906148fa565b60ff168263ffffffff1614155b611e4b5760405162461bcd60e51b8152602060048201526014602482015273696e76616c696420726f79616c7479207479706560601b60448201526064016107fa565b600d5460405163026579b560e11b815234600482015263ffffffff841660248201526001600160a01b03909116906304caf36a90604401600060405180830381600087803b158015611e9c57600080fd5b505af1158015611eb0573d6000803e3d6000fd5b505050506008548114610b8357600080fd5b600d5460408051633ffcdacb60e11b815290516000926001600160a01b031691637ff9b5969160048083019260209291908290030181865afa158015610fd1573d6000803e3d6000fd5b6007546001600160a01b0316331480611f3457503360009081526009602052604090205460ff165b611f505760405162461bcd60e51b81526004016107fa90614a32565b600d8054911515600160c01b0260ff60c01b19909216919091179055565b606060068054610b969061491d565b3360008181526003602090815260408083206001600160a01b03871680855290835292819020805460ff191686151590811790915590519081529192917f17307eab39ab6107e8899845ad3d59bd9653f200f220920489ca2b5937696c3191015b60405180910390a35050565b611ff684848484613841565b50505050565b600d54606090600160a01b900463ffffffff16821061205d5760405162461bcd60e51b815260206004820152601f60248201527f746f6b656e55524920666f72206e6f6e2d6578697374656e7420746f6b656e0060448201526064016107fa565b6040518060a0016040528060628152602001614f6560629139600a546040805163712a908d60e01b81523060048201526024810191909152600f60448201526e64656661756c74546f6b656e55524960881b60648201529192506000916001600160a01b039091169063712a908d90608401600060405180830381865afa1580156120ec573d6000803e3d6000fd5b505050506040513d6000823e601f3d908101601f191682016040526121149190810190614a58565b90508051600014612123578091505b600061212e84611c37565b60008581526001602052604081208054929350909161214c9061491d565b80601f01602080910402602001604051908101604052809291908181526020018280546121789061491d565b80156121c55780601f1061219a576101008083540402835291602001916121c5565b820191906000526020600020905b8154815290600101906020018083116121a857829003601f168201915b5050600a5460408051636c17fd7960e01b815263ffffffff8c1660048201526024810191909152600d60448201526c666f726365546f6b656e55524960981b60648201529495506001600160a01b031693636c17fd79935060840191506122299050565b602060405180830381865afa158015612246573d6000803e3d6000fd5b505050506040513d601f19601f8201168201806040525081019061226a91906148dd565b80156122765750805115155b1561228357809350612621565b600a54604051633f08e8e360e11b81526001600160a01b0390911690637e11d1c6906122b3908590600401614a8c565b602060405180830381865afa1580156122d0573d6000803e3d6000fd5b505050506040513d601f19601f820116820180604052508101906122f491906148dd565b8061236b5750600a54604051633f08e8e360e11b81526001600160a01b0390911690637e11d1c69061232a903090600401614a8c565b602060405180830381865afa158015612347573d6000803e3d6000fd5b505050506040513d601f19601f8201168201806040525081019061236b91906148dd565b1561261657600a54604051633f08e8e360e11b81526000916001600160a01b031690637e11d1c6906123a1908690600401614a8c565b602060405180830381865afa1580156123be573d6000803e3d6000fd5b505050506040513d601f19601f820116820180604052508101906123e291906148dd565b6123ec57306123ee565b825b600a5460405163712a908d60e01b81529192506000916001600160a01b039091169063712a908d9061244f9085906004016001600160a01b03919091168152604060208201819052600490820152631c9bdbdd60e21b606082015260800190565b600060405180830381865afa15801561246c573d6000803e3d6000fd5b505050506040513d6000823e601f3d908101601f191682016040526124949190810190614a58565b600a80546040805163712a908d60e01b81526001600160a01b03878116600483015260248201929092526044810193909352690e4dedee8a6eaccccd2f60b31b6064840152929350600092169063712a908d90608401600060405180830381865afa158015612507573d6000803e3d6000fd5b505050506040513d6000823e601f3d908101601f1916820160405261252f9190810190614a58565b9050805160001480156125ce5750600c546040516206259160e71b81526020600482015260136024820152720e4cadadeecca88caccc2ead8e8a6eaccccd2f606b1b60448201526001600160a01b0390911690630312c88090606401602060405180830381865afa1580156125a8573d6000803e3d6000fd5b505050506040513d601f19601f820116820180604052508101906125cc91906148dd565b155b156125f15750604080518082019091526005815264173539b7b760d91b60208201525b81511561260e5761260b826126058a6138b1565b836139d9565b96505b505050612621565b805115612621578093505b505050919050565b6007546001600160a01b031633148061265157503360009081526009602052604090205460ff165b61266d5760405162461bcd60e51b81526004016107fa90614a32565b600c5460405163e7b6dac960e01b81526001600160a01b039091169063e7b6dac99061269b906004016149a0565b602060405180830381865afa1580156126b8573d6000803e3d6000fd5b505050506040513d601f19601f820116820180604052508101906126dc91906149c3565b600d54600160a01b900463ffffffff1614156127565760405162461bcd60e51b815260206004820152603360248201527f6d617820737570706c7920686173206265656e2072656163686564207261697360448201527265206974206265666f7265206d696e74696e6760681b60648201526084016107fa565b600c546040516206259160e71b815260206004820152600f60248201526e696e6372656d656e74616c4d6f646560881b60448201526001600160a01b0390911690630312c88090606401602060405180830381865afa1580156127bd573d6000803e3d6000fd5b505050506040513d601f19601f820116820180604052508101906127e191906148dd565b8061286e5750600c546040516206259160e71b815260206004820152600b60248201526a6d6174636865644d6f646560a81b60448201526001600160a01b0390911690630312c88090606401602060405180830381865afa15801561284a573d6000803e3d6000fd5b505050506040513d601f19601f8201168201806040525081019061286e91906148dd565b1561295b57600b60009054906101000a90046001600160a01b03166001600160a01b031663573f86006040518163ffffffff1660e01b8152600401602060405180830381865afa1580156128c6573d6000803e3d6000fd5b505050506040513d601f19601f820116820180604052508101906128ea9190614ac1565b6001600160a01b0316638a25ad24612903886001614ade565b6040516001600160e01b031960e084901b16815263ffffffff919091166004820152602401600060405180830381600087803b15801561294257600080fd5b505af1158015612956573d6000803e3d6000fd5b505050505b600d546129b4906129ab90600160a01b900463ffffffff16888886868a8a8f60006040519080825280602002602001820160405280156129a5578160200160208202803683370190505b50613a12565b88600080613405565b50505050505050565b6007546000906001600160a01b038381169116148061079d5750506001600160a01b031660009081526009602052604090205460ff1690565b6001600160a01b03918216600090815260036020908152604080832093909416825291909152205460ff1690565b6007546001600160a01b0316331480612a4c57503360009081526009602052604090205460ff165b612a685760405162461bcd60e51b81526004016107fa90614a32565b6001600160a01b038116612a7b57600080fd5b600b80546001600160a01b0319166001600160a01b0392909216919091179055565b6007546001600160a01b03163314612ac75760405162461bcd60e51b81526004016107fa90614958565b600780546001600160a01b03908116600090815260096020526040808220805460ff1990811690915584546001600160a01b03191693861693841790945582825280822080549094166001179093559151909133917f93091b3f3cd424efabc74e181f3799f3476ed758412561ed3b29515c51f567529190a350565b6007546001600160a01b03163314612b6d5760405162461bcd60e51b81526004016107fa90614958565b6007546001600160a01b0383811691161415612bc45760405162461bcd60e51b815260206004820152601660248201527531b0b73737ba1036b7b234b33c903232b83637bcb2b960511b60448201526064016107fa565b6001600160a01b038216600081815260096020908152604091829020805460ff1916851515908117909155915191825233917ff38de818d000d07d091732dd783c6855722d7bc1934d92b7635133289d3416959101611fde565b612c2c34600960003361176c565b612cc15760405162461bcd60e51b815260206004820152605a60248201527f6661696c6564206d696e7420636865636b3a206d696e7473206172652064697360448201527f61626c65642c206d696e7473206172652061742061206d617820737570706c79606482015279040dee440f2deea40c8d2c840dcdee840e0c2f240cadcdeeaced60331b608482015260a4016107fa565b600b54600d54604051631bc8bf9360e01b8152610f82926001600160a01b031691631bc8bf9391612d0691600160a01b900463ffffffff169033908790600401614b06565b6000604051808303816000875af1158015612d25573d6000803e3d6000fd5b505050506040513d6000823e601f3d908101601f19168201604052612d4d9190810190614782565b33600034613405565b600a5460408051636c17fd7960e01b815263ffffffff84166004820152602481019190915260066044820152651b1bd8dad95960d21b60648201526001600160a01b0390911690636c17fd7990608401602060405180830381865afa158015612dc3573d6000803e3d6000fd5b505050506040513d601f19601f82011682018060405250810190612de791906148dd565b151560011415612e715760405162461bcd60e51b815260206004820152604960248201527f5468697320746f6b656e206973206c6f636b656420616e64206e65656473207460448201527f6f20626520756e6c6f636b6564206265666f72652069742063616e20626520746064820152681c985b9cd9995c995960ba1b608482015260a4016107fa565b600c546040516206259160e71b8152602060048201526015602482015274656e61626c655472616e73666572556e6c696e6b7360581b60448201526001600160a01b0390911690630312c88090606401602060405180830381865afa158015612ede573d6000803e3d6000fd5b505050506040513d601f19601f82011682018060405250810190612f0291906148dd565b1561311b57600a54604051630368390b60e31b81526001600160a01b0390911690631b41c85890612f3a9084906000906004016148c7565b602060405180830381865afa158015612f57573d6000803e3d6000fd5b505050506040513d601f19601f82011682018060405250810190612f7b91906148dd565b1561301157600a54604051638180a71760e01b815263ffffffff8316600482015260606024820152600f60648201526e063616e556e6c696e6b496e6465783608c1b6084820152600160448201526001600160a01b0390911690638180a7179060a401600060405180830381600087803b158015612ff857600080fd5b505af115801561300c573d6000803e3d6000fd5b505050505b600a54604051630368390b60e31b81526001600160a01b0390911690631b41c858906130449084906000906004016148c7565b602060405180830381865afa158015613061573d6000803e3d6000fd5b505050506040513d601f19601f8201168201806040525081019061308591906148dd565b1561311b57600a54604051638180a71760e01b815263ffffffff8316600482015260606024820152600f60648201526e63616e556e6c696e6b496e6465783160881b6084820152600160448201526001600160a01b0390911690638180a7179060a401600060405180830381600087803b15801561310257600080fd5b505af1158015613116573d6000803e3d6000fd5b505050505b600a546040516320025d2160e21b81526001600160a01b039091169063800974849061314d9085908590600401614b36565b600060405180830381600087803b15801561316757600080fd5b505af115801561317b573d6000803e3d6000fd5b5050600c546040516206259160e71b81526001600160a01b039091169250630312c88091506131ac90600401614b55565b602060405180830381865afa1580156131c9573d6000803e3d6000fd5b505050506040513d601f19601f820116820180604052508101906131ed91906148dd565b61083b57600a54604051634fe61faf60e11b81526001600160a01b0390911690639fcc3f5e906132239085908590600401614b36565b600060405180830381600087803b15801561323d57600080fd5b505af1158015613251573d6000803e3d6000fd5b505050506001600160a01b0383161561083b57600a54604051634f2609c760e11b81526001600160a01b0390911690639e4c138e906132969086908590600401614b36565b600060405180830381600087803b1580156132b057600080fd5b505af11580156129b4573d6000803e3d6000fd5b600d54600090600160c01b900460ff166132e05750600061079d565b600c5460405163e7b6dac960e01b81526001600160a01b039091169063e7b6dac99061330e906004016149a0565b602060405180830381865afa15801561332b573d6000803e3d6000fd5b505050506040513d601f19601f8201168201806040525081019061334f91906149c3565b600d54600160a01b900463ffffffff161061336c5750600061079d565b8180156133ef5750600d60009054906101000a90046001600160a01b03166001600160a01b0316637ff9b5966040518163ffffffff1660e01b8152600401602060405180830381865afa1580156133c7573d6000803e3d6000fd5b505050506040513d601f19601f820116820180604052508101906133eb91906149c3565b8314155b156133fc5750600061079d565b50600192915050565b61342c83600d60149054906101000a900463ffffffff1663ffffffff168660a00151613ad8565b600a54600d5460405163c28cf06160e01b81526001600160a01b039092169163c28cf0619161346e91600160a01b90910463ffffffff16908890600401614c55565b600060405180830381600087803b15801561348857600080fd5b505af115801561349c573d6000803e3d6000fd5b5050600c546040516206259160e71b81526001600160a01b039091169250630312c88091506134cd90600401614b55565b602060405180830381865afa1580156134ea573d6000803e3d6000fd5b505050506040513d601f19601f8201168201806040525081019061350e91906148dd565b61358657600a54600d54604051634fe61faf60e11b81526001600160a01b0390921691639fcc3f5e91613553918791600160a01b900463ffffffff1690600401614b36565b600060405180830381600087803b15801561356d57600080fd5b505af1158015613581573d6000803e3d6000fd5b505050505b600a54600c5460405163e7b6dac960e01b81526001600160a01b0392831692638ff58aa692879291169063e7b6dac9906135c2906004016149f3565b602060405180830381865afa1580156135df573d6000803e3d6000fd5b505050506040513d601f19601f8201168201806040525081019061360391906149c3565b6040518363ffffffff1660e01b8152600401613620929190614a19565b600060405180830381600087803b15801561363a57600080fd5b505af115801561364e573d6000803e3d6000fd5b5050600d5460408051631d4e010f60e11b815290516001600160a01b0390921693506304caf36a925084918491633a9c021e9160048083019260209291908290030181865afa1580156136a5573d6000803e3d6000fd5b505050506040513d601f19601f820116820180604052508101906136c991906148fa565b6040516001600160e01b031960e085901b168152600481019290925260ff166024820152604401600060405180830381600087803b15801561370a57600080fd5b505af115801561371e573d6000803e3d6000fd5b5050505081156137b457600d80546001600160a01b038516917f8f2c63d2fb7a6762d60b5c413fcf4212bc46912b94c8b65172d780f1a2515a4491600160a01b900463ffffffff1690601461377283614d58565b91906101000a81548163ffffffff021916908363ffffffff16021790555061379987613bf9565b6040516137a7929190614d7c565b60405180910390a2611ff6565b600d80546001600160a01b038516917fef35cf177b2baefe03d86d3f735f32215ea0d2fb2f0548bc5f45ea6950e6889491600160a01b900463ffffffff169060146137fe83614d58565b91906101000a81548163ffffffff021916908363ffffffff16021790555061382587613bf9565b604051613833929190614d7c565b60405180910390a250505050565b61384c8484846111d3565b6138593385858585613c70565b611ff65760405162461bcd60e51b815260206004820152602360248201527f45524337323120526563656976657220436f6e6669726d6174696f6e2049732060448201526210985960ea1b60648201526084016107fa565b6060816138d55750506040805180820190915260018152600360fc1b602082015290565b8160005b81156138ff57806138e981614d9b565b91506138f89050600a83614db6565b91506138d9565b6000816001600160401b0381111561391957613919613e85565b6040519080825280601f01601f191660200182016040528015613943576020820181803683370190505b509050815b85156139d0576139596001826149dc565b90506000613968600a88614db6565b61397390600a614dd8565b61397d90886149dc565b613988906030614df7565b905060008160f81b9050808484815181106139a5576139a561459c565b60200101906001600160f81b031916908160001a9053506139c7600a89614db6565b97505050613948565b50949350505050565b60608383836040516020016139f093929190614e1c565b604051602081830303815290604052806020019051810190611b999190614a58565b613a7c604051806101200160405280600063ffffffff168152602001600063ffffffff168152602001600063ffffffff16815260200160006001600160a01b0316815260200160608152602001606081526020016060815260200160608152602001606081525090565b50604080516101208101825263ffffffff998a168152978916602089015298909716978601979097526001600160a01b039096166060850152608084015260a083019490945260c082015260e081019290925261010082015290565b6001600160a01b038316613b195760405162461bcd60e51b81526020600482015260086024820152670c1e0c081b5a5b9d60c21b60448201526064016107fa565b613b2282611c1a565b15613b605760405162461bcd60e51b815260206004820152600e60248201526d185b1c9958591e481b5a5b9d195960921b60448201526064016107fa565b6001600160a01b0383166000908152600460205260408120805460019290613b899084906145c8565b909155505060008281526020819052604080822080546001600160a01b0319166001600160a01b03871690811790915590518492907fddf252ad1be2c89b69c2b068fc378daa952ba7f163c4a11628f55a4df523b3ef908290a4613bf03330858585613c70565b61083b57600080fd5b606081600001518260200151836040015184606001518560800151604051602001613c249190614e5f565b60408051601f198184030181529082905260a088015160c089015160e08a01516101008b0151613c5a9998979695602001614e72565b6040516020818303038152906040529050919050565b6000833b613c8057506001613da9565b604051630a85bd0160e11b81526001600160a01b0385169063150b7a0290613cb2908990899088908890600401614f14565b6020604051808303816000875af1925050508015613ced575060408051601f3d908101601f19168201909252613cea91810190614f47565b60015b613d93573d808015613d1b576040519150601f19603f3d011682016040523d82523d6000602084013e613d20565b606091505b508051613d8b5760405162461bcd60e51b815260206004820152603360248201527f5468697320636f6e747261637420646f6573206e6f7420696d706c656d656e746044820152721030b71024a2a9219b9918a932b1b2b4bb32b960691b60648201526084016107fa565b805181602001fd5b6001600160e01b031916630a85bd0160e11b1490505b95945050505050565b828054613dbe9061491d565b90600052602060002090601f016020900481019282613de05760008555613e26565b82601f10613df957805160ff1916838001178555613e26565b82800160010185558215613e26579182015b82811115613e26578251825591602001919060010190613e0b565b50613e32929150613e36565b5090565b5b80821115613e325760008155600101613e37565b6001600160e01b031981168114610f8257600080fd5b600060208284031215613e7357600080fd5b8135613e7e81613e4b565b9392505050565b634e487b7160e01b600052604160045260246000fd5b60405161012081016001600160401b0381118282101715613ebe57613ebe613e85565b60405290565b604051601f8201601f191681016001600160401b0381118282101715613eec57613eec613e85565b604052919050565b60006001600160401b03821115613f0d57613f0d613e85565b5060051b60200190565b6001600160a01b0381168114610f8257600080fd5b8035613f3781613f17565b919050565b60008060408385031215613f4f57600080fd5b82356001600160401b03811115613f6557600080fd5b8301601f81018513613f7657600080fd5b80356020613f8b613f8683613ef4565b613ec4565b82815260059290921b83018101918181019088841115613faa57600080fd5b938201935b83851015613fc857843582529382019390820190613faf565b9550613fd79050868201613f2c565b93505050509250929050565b63ffffffff81168114610f8257600080fd5b8035613f3781613fe3565b60006020828403121561401257600080fd5b8135613e7e81613fe3565b60005b83811015614038578181015183820152602001614020565b83811115611ff65750506000910152565b6000815180845261406181602086016020860161401d565b601f01601f19169290920160200192915050565b602081526000613e7e6020830184614049565b60006020828403121561409a57600080fd5b5035919050565b6001600160a01b0391909116815260200190565b600080604083850312156140c857600080fd5b82356140d381613f17565b946020939093013593505050565b600060208083850312156140f457600080fd5b82356001600160401b0381111561410a57600080fd5b8301601f8101851361411b57600080fd5b8035614129613f8682613ef4565b81815260059190911b8201830190838101908783111561414857600080fd5b928401925b8284101561416f57833561416081613f17565b8252928401929084019061414d565b979650505050505050565b60006020828403121561418c57600080fd5b8135613e7e81613f17565b60006001600160401b038211156141b0576141b0613e85565b50601f01601f191660200190565b600082601f8301126141cf57600080fd5b81356141dd613f8682614197565b8181528460208386010111156141f257600080fd5b816020850160208301376000918101602001919091529392505050565b60006020828403121561422157600080fd5b81356001600160401b0381111561423757600080fd5b611b99848285016141be565b6000806040838503121561425657600080fd5b823561426181613fe3565b915060208301356001600160401b0381111561427c57600080fd5b614288858286016141be565b9150509250929050565b6000806000606084860312156142a757600080fd5b83356142b281613f17565b925060208401356142c281613f17565b929592945050506040919091013590565b8015158114610f8257600080fd5b6000602082840312156142f357600080fd5b8135613e7e816142d3565b6000806040838503121561431157600080fd5b823561431c81613f17565b9150602083013561432c816142d3565b809150509250929050565b6000806000806080858703121561434d57600080fd5b843561435881613f17565b9350602085013561436881613f17565b92506040850135915060608501356001600160401b0381111561438a57600080fd5b614396878288016141be565b91505092959194509250565b600082601f8301126143b357600080fd5b813560206143c3613f8683613ef4565b82815260059290921b840181019181810190868411156143e257600080fd5b8286015b848110156144065780356143f981613fe3565b83529183019183016143e6565b509695505050505050565b600082601f83011261442257600080fd5b81356020614432613f8683613ef4565b82815260059290921b8401810191818101908684111561445157600080fd5b8286015b848110156144065780356001600160401b038111156144745760008081fd5b6144828986838b01016141be565b845250918301918301614455565b600080600080600080600060e0888a0312156144ab57600080fd5b6144b488613f2c565b96506144c260208901613ff5565b95506144d060408901613ff5565b945060608801356001600160401b03808211156144ec57600080fd5b6144f88b838c016143a2565b955060808a013591508082111561450e57600080fd5b61451a8b838c016141be565b945060a08a013591508082111561453057600080fd5b61453c8b838c016143a2565b935060c08a013591508082111561455257600080fd5b5061455f8a828b01614411565b91505092959891949750929550565b6000806040838503121561458157600080fd5b823561458c81613f17565b9150602083013561432c81613f17565b634e487b7160e01b600052603260045260246000fd5b634e487b7160e01b600052601160045260246000fd5b600082198211156145db576145db6145b2565b500190565b8051613f3781613fe3565b8051613f3781613f17565b600082601f83011261460757600080fd5b81516020614617613f8683613ef4565b82815260059290921b8401810191818101908684111561463657600080fd5b8286015b8481101561440657805161464d81613fe3565b835291830191830161463a565b600082601f83011261466b57600080fd5b8151614679613f8682614197565b81815284602083860101111561468e57600080fd5b611b9982602083016020870161401d565b600082601f8301126146b057600080fd5b815160206146c0613f8683613ef4565b82815260059290921b840181019181810190868411156146df57600080fd5b8286015b848110156144065780516001600160401b038111156147025760008081fd5b6147108986838b010161465a565b8452509183019183016146e3565b600082601f83011261472f57600080fd5b8151602061473f613f8683613ef4565b82815260059290921b8401810191818101908684111561475e57600080fd5b8286015b8481101561440657805161477581613f17565b8352918301918301614762565b60006020828403121561479457600080fd5b81516001600160401b03808211156147ab57600080fd5b9083019061012082860312156147c057600080fd5b6147c8613e9b565b6147d1836145e0565b81526147df602084016145e0565b60208201526147f0604084016145e0565b6040820152614801606084016145eb565b606082015260808301518281111561481857600080fd5b614824878286016145f6565b60808301525060a08301518281111561483c57600080fd5b6148488782860161465a565b60a08301525060c08301518281111561486057600080fd5b61486c878286016145f6565b60c08301525060e08301518281111561488457600080fd5b6148908782860161469f565b60e08301525061010080840151838111156148aa57600080fd5b6148b68882870161471e565b918301919091525095945050505050565b63ffffffff929092168252602082015260400190565b6000602082840312156148ef57600080fd5b8151613e7e816142d3565b60006020828403121561490c57600080fd5b815160ff81168114613e7e57600080fd5b600181811c9082168061493157607f821691505b6020821081141561495257634e487b7160e01b600052602260045260246000fd5b50919050565b6020808252600c908201526b3737ba103232b83637bcb2b960a11b604082015260600190565b602080825260089082015267189e5d19535a5b9d60c21b604082015260600190565b6020808252600990820152686d6178537570706c7960b81b604082015260600190565b6000602082840312156149d557600080fd5b5051919050565b6000828210156149ee576149ee6145b2565b500390565b6020808252600c908201526b1c1c995d9a595dd0dbdd5b9d60a21b604082015260600190565b6001600160a01b03929092168252602082015260400190565b6020808252600c908201526b1b9bdd08185c1c1c9bdd995960a21b604082015260600190565b600060208284031215614a6a57600080fd5b81516001600160401b03811115614a8057600080fd5b611b998482850161465a565b6001600160a01b03919091168152604060208201819052600990820152681d5cda5b99d49bdbdd60ba1b606082015260800190565b600060208284031215614ad357600080fd5b8151613e7e81613f17565b600063ffffffff808316818516808303821115614afd57614afd6145b2565b01949350505050565b63ffffffff841681526001600160a01b0383166020820152606060408201819052600090613da990830184614049565b6001600160a01b0392909216825263ffffffff16602082015260400190565b60208082526017908201527664697361626c6552656769737465726564546f6b656e7360481b604082015260600190565b600081518084526020808501945080840160005b83811015614bbc57815163ffffffff1687529582019590820190600101614b9a565b509495945050505050565b600081518084526020808501808196508360051b8101915082860160005b85811015614c0f578284038952614bfd848351614049565b98850198935090840190600101614be5565b5091979650505050505050565b600081518084526020808501945080840160005b83811015614bbc5781516001600160a01b031687529582019590820190600101614c30565b63ffffffff8316815260406020820152614c7860408201835163ffffffff169052565b60006020830151614c91606084018263ffffffff169052565b50604083015163ffffffff811660808401525060608301516001600160a01b03811660a08401525060808301516101208060c0850152614cd5610160850183614b86565b915060a0850151603f19808685030160e0870152614cf38483614049565b935060c08701519150610100818786030181880152614d128584614b86565b945060e08801519250818786030184880152614d2e8584614bc7565b94508088015193505080868503016101408701525050614d4e8282614c1c565b9695505050505050565b600063ffffffff80831681811415614d7257614d726145b2565b6001019392505050565b63ffffffff83168152604060208201526000611b996040830184614049565b6000600019821415614daf57614daf6145b2565b5060010190565b600082614dd357634e487b7160e01b600052601260045260246000fd5b500490565b6000816000190483118215151615614df257614df26145b2565b500290565b600060ff821660ff84168060ff03821115614e1457614e146145b2565b019392505050565b60008451614e2e81846020890161401d565b845190830190614e4281836020890161401d565b8451910190614e5581836020880161401d565b0195945050505050565b602081526000613e7e6020830184614b86565b63ffffffff8a811682528981166020830152881660408201526001600160a01b038716606082015261012060808201819052600090614eb383820189614049565b905082810360a0840152614ec78188614049565b905082810360c0840152614edb8187614b86565b905082810360e0840152614eef8186614bc7565b9050828103610100840152614f048185614c1c565b9c9b505050505050505050505050565b6001600160a01b0385811682528416602082015260408101839052608060608201819052600090614d4e90830184614049565b600060208284031215614f5957600080fd5b8151613e7e81613e4b56fe68747470733a2f2f6261667962656968786d646b6d76766a6b736b746f7765687976777168363262776e7634766a61366c6c626c376b627a7662726765653561696d752e697066732e7733732e6c696e6b2f64656661756c745f7572692e6a736f6ea26469706673582212204bfb4a9d0f6b30f41912d889b3ddfd77c0fb54f0b932d49d80dcb87f88f8e91564736f6c634300080c0033",
  "libraries": {
    "InfinityMintUtil": "0xd7fcAa6A3e68e4eDAb6eA551594cF60CCe436F73"
  },
  "devdoc": {
    "author": "Llydia Cross",
    "events": {
      "TokenMinted(uint32,bytes,address)": {
        "details": "will be changed to TokenMinted soon"
      },
      "TokenPreviewMinted(uint32,bytes,address)": {
        "details": "will be changed to TokenPreviewMinted soon"
      }
    },
    "kind": "dev",
    "methods": {
      "approve(address,uint256)": {
        "details": "will Throw if tokenId does not exist"
      },
      "depositStickerRoyalty(uint32)": {
        "details": "the amount that is paid into this function is defined by the sticker price set by the token owner. The royalty controller cuts up the deposited tokens even more depending on if there are any splits."
      },
      "getPreview()": {
        "details": "This method is the most gas intensive method in InfinityMint, how ever there is a trade off in the fact that that MintPreview is insanely cheap and does not need a lot of gas. I suggest using low previewCount values of about 2 or 3. Anything higher is dependant in your project configuartion and how much you care about gas prices."
      },
      "implicitMint(address,uint32,uint32,uint32[],bytes,uint32[],string[])": {
        "details": "This is the cheapest way to get InfinityMint to mint something as it literally decides no values on chain. This method can also be called by a rollup solution or something or be used as a way to literally mint anything.",
        "params": {
          "assets": "the assets for this token",
          "colours": "the colours of this token",
          "pathId": "the pathid you want to mint",
          "pathSize": "the size of this path (for colour generation)",
          "receiver": "the address to receive the mint"
        }
      },
      "isApprovedOrOwner(address,uint256)": {
        "details": "same as open zepps"
      },
      "mintArguments(bytes)": {
        "details": "must have byteMint enabled in valuesController"
      },
      "mintPreview(uint32)": {
        "details": "This will wipe other previews once called.",
        "params": {
          "index": "the index of the preview to mint"
        }
      },
      "ownerOf(uint256)": {
        "details": "will Throw if the token does not exist"
      },
      "safeTransferFrom(address,address,uint256)": {
        "details": "Emits a {Transfer} event."
      },
      "safeTransferFrom(address,address,uint256,bytes)": {
        "details": "Emits a {Transfer} event."
      },
      "setMinterController(address)": {
        "details": "Contracts must inherit the the same interfaces this contract has been built with, so version 1 Omega stuff."
      },
      "setRoyaltyController(address)": {
        "details": "Contracts must inherit the the same interfaces this contract has been built with, so version 1 Omega stuff."
      },
      "setStorageController(address)": {
        "details": "Contracts must inherit the the same interfaces this contract has been built with, so version 1 Omega stuff."
      },
      "setTokenURI(uint32,string)": {
        "details": "you need to call this from an approved address for the token",
        "params": {
          "json": "an IFPS link or a",
          "tokenId": "the tokenId"
        }
      },
      "supportsInterface(bytes4)": {
        "details": "See {IERC165-supportsInterface}."
      },
      "tokenPrice()": {
        "details": "the royalty controller actually controls the token price so in order to change it you must send tx to that contract."
      },
      "totalSupply()": {
        "details": "Returns the max supply of tokens, not the amount that have been minted. (so the tokenId)"
      },
      "transferBatch(uint256[],address)": {
        "details": "must be split up into chunks of 32"
      },
      "transferFrom(address,address,uint256)": {
        "details": "Emits a {Transfer} event."
      },
      "withdraw()": {
        "details": "The totals that the sender can withdraw is managed by the royalty controller"
      }
    },
    "title": "InfinityMint ERC721 Implementation",
    "version": 1
  },
  "userdoc": {
    "events": {
      "TokenPreviewComplete(address,uint256)": {
        "notice": "Fired when ever a preview has been completed"
      }
    },
    "kind": "user",
    "methods": {
      "approve(address,uint256)": {
        "notice": "Sets an approved adress for this token"
      },
      "balanceOf(address)": {
        "notice": "blanceOf returns the number of tokens an address currently holds."
      },
      "constructor": {
        "notice": "InfinityMint Constructor takes tokenName and tokenSymbol and the various destinations of controller contracts"
      },
      "currentTokenId()": {
        "notice": "numerical increment of the current tokenId"
      },
      "depositStickerRoyalty(uint32)": {
        "notice": "this can only be called by sticker contracts and is used to pay back the contract owner their sticker cut TODO: Turn this into a non static function capable of accepting payments not just from the sticker"
      },
      "depositSystemRoyalty(uint32)": {
        "notice": "Allows approved contracts to deposit royalty types"
      },
      "exists(uint256)": {
        "notice": "Returns true if a token exists."
      },
      "getApproved(uint256)": {
        "notice": "Returns the approved adress for this token."
      },
      "getPreview()": {
        "notice": "Returns a selection of preview mints, these are ghost NFTs which can be chosen from. Their generation values are based off of eachover due to the nature of the number system."
      },
      "implicitMint(address,uint32,uint32,uint32[],bytes,uint32[],string[])": {
        "notice": "Allows approved or the deployer to pick exactly what token they would like to mint. Does not check if assets/colours/mintData is valid. Implicitly assets what ever."
      },
      "isApprovedForAll(address,address)": {
        "notice": "Will returns true if the operator is approved by the owner address"
      },
      "isApprovedOrOwner(address,uint256)": {
        "notice": "will returns true if the address is apprroved for all, approved operator or is the owner of a token"
      },
      "mint()": {
        "notice": "Public method to mint a token taking no bytes argument"
      },
      "mintArguments(bytes)": {
        "notice": "Public method to mint a token but taking input data in the form of packed bytes"
      },
      "mintPreview(uint32)": {
        "notice": "Mints a preview. Index is relative to the sender and is the index of the preview in the users preview list"
      },
      "minterController()": {
        "notice": "Interface set to the location of the minter controller which controls how InfinityMint mints, is set in constructor and can be modified through setDestinations"
      },
      "mintsEnabled()": {
        "notice": "will disallow mints if set to true"
      },
      "name()": {
        "notice": "Returns the name of the ERC721  for display on places like Etherscan"
      },
      "ownerOf(uint256)": {
        "notice": "Returns the owner of a current token"
      },
      "royaltyController()": {
        "notice": "Interface set to the location of the royalty controller which controls how  picks random numbers and primes, is set in constructor and can be modified through setDestinations"
      },
      "safeTransferFrom(address,address,uint256)": {
        "notice": "Just like the method above except with no data field we pass to the implemeting contract."
      },
      "safeTransferFrom(address,address,uint256,bytes)": {
        "notice": "Just like transferFrom except we will check if the to address is a contract and is an IERC721Receiver implementer"
      },
      "setApprovalForAll(address,bool)": {
        "notice": "Will approve an operator for the senders tokens"
      },
      "setMinterController(address)": {
        "notice": "Sets the destinations of the minter contract"
      },
      "setMintsEnabled(bool)": {
        "notice": "Toggles mints allowing people to either mint or not mint tokens."
      },
      "setRoyaltyController(address)": {
        "notice": "Sets the destinations of the royalty contract"
      },
      "setStorageController(address)": {
        "notice": "Sets the destinations of the storage contract"
      },
      "setTokenURI(uint32,string)": {
        "notice": "sets the token URI"
      },
      "storageController()": {
        "notice": "Interface set to the location of the storage controller, is set in constructor and cannot be modified."
      },
      "supportsInterface(bytes4)": {
        "notice": "this is used by opensea/polyscan to detect our ERC721"
      },
      "symbol()": {
        "notice": "Returns the symbol of the ERC721 for display on places like Polyscan"
      },
      "tokenPrice()": {
        "notice": "Returns the current price of a mint."
      },
      "tokenURI(uint256)": {
        "notice": "returns the tokenURI for a token, will return the"
      },
      "totalSupply()": {
        "notice": "the total supply of tokens"
      },
      "transferBatch(uint256[],address)": {
        "notice": "Allows the ability for multiple tokens to be transfered at once."
      },
      "transferFrom(address,address,uint256)": {
        "notice": "Transfers a token fsrom one address to another. Use safeTransferFrom as that will double check that the address you send this token too is a contract that can actually receive it."
      },
      "valuesController()": {
        "notice": "Interface set to the location of the values controller responsible for managing global variables across the smart contract syste,, is set in constructor and cannot be modified."
      },
      "withdraw()": {
        "notice": "Allows you to withdraw your earnings from the contract."
      }
    },
    "notice": "@dev",
    "version": 1
  },
  "storageLayout": {
    "storage": [
      {
        "astId": 703,
        "contract": "contracts/InfinityMint.sol:InfinityMint",
        "label": "tokens",
        "offset": 0,
        "slot": "0",
        "type": "t_mapping(t_uint256,t_address)"
      },
      {
        "astId": 708,
        "contract": "contracts/InfinityMint.sol:InfinityMint",
        "label": "uri",
        "offset": 0,
        "slot": "1",
        "type": "t_mapping(t_uint256,t_string_storage)"
      },
      {
        "astId": 713,
        "contract": "contracts/InfinityMint.sol:InfinityMint",
        "label": "approvedTokens",
        "offset": 0,
        "slot": "2",
        "type": "t_mapping(t_uint256,t_address)"
      },
      {
        "astId": 720,
        "contract": "contracts/InfinityMint.sol:InfinityMint",
        "label": "operators",
        "offset": 0,
        "slot": "3",
        "type": "t_mapping(t_address,t_mapping(t_address,t_bool))"
      },
      {
        "astId": 725,
        "contract": "contracts/InfinityMint.sol:InfinityMint",
        "label": "balance",
        "offset": 0,
        "slot": "4",
        "type": "t_mapping(t_address,t_uint256)"
      },
      {
        "astId": 728,
        "contract": "contracts/InfinityMint.sol:InfinityMint",
        "label": "_name",
        "offset": 0,
        "slot": "5",
        "type": "t_string_storage"
      },
      {
        "astId": 731,
        "contract": "contracts/InfinityMint.sol:InfinityMint",
        "label": "_symbol",
        "offset": 0,
        "slot": "6",
        "type": "t_string_storage"
      },
      {
        "astId": 458,
        "contract": "contracts/InfinityMint.sol:InfinityMint",
        "label": "deployer",
        "offset": 0,
        "slot": "7",
        "type": "t_address"
      },
      {
        "astId": 461,
        "contract": "contracts/InfinityMint.sol:InfinityMint",
        "label": "executionCount",
        "offset": 0,
        "slot": "8",
        "type": "t_uint256"
      },
      {
        "astId": 465,
        "contract": "contracts/InfinityMint.sol:InfinityMint",
        "label": "approved",
        "offset": 0,
        "slot": "9",
        "type": "t_mapping(t_address,t_bool)"
      },
      {
        "astId": 1499,
        "contract": "contracts/InfinityMint.sol:InfinityMint",
        "label": "storageController",
        "offset": 0,
        "slot": "10",
        "type": "t_contract(InfinityMintStorage)6826"
      },
      {
        "astId": 1503,
        "contract": "contracts/InfinityMint.sol:InfinityMint",
        "label": "minterController",
        "offset": 0,
        "slot": "11",
        "type": "t_contract(Minter)7648"
      },
      {
        "astId": 1507,
        "contract": "contracts/InfinityMint.sol:InfinityMint",
        "label": "valuesController",
        "offset": 0,
        "slot": "12",
        "type": "t_contract(InfinityMintValues)7222"
      },
      {
        "astId": 1511,
        "contract": "contracts/InfinityMint.sol:InfinityMint",
        "label": "royaltyController",
        "offset": 0,
        "slot": "13",
        "type": "t_contract(Royalty)8284"
      },
      {
        "astId": 1539,
        "contract": "contracts/InfinityMint.sol:InfinityMint",
        "label": "currentTokenId",
        "offset": 20,
        "slot": "13",
        "type": "t_uint32"
      },
      {
        "astId": 1542,
        "contract": "contracts/InfinityMint.sol:InfinityMint",
        "label": "mintsEnabled",
        "offset": 24,
        "slot": "13",
        "type": "t_bool"
      }
    ],
    "types": {
      "t_address": {
        "encoding": "inplace",
        "label": "address",
        "numberOfBytes": "20"
      },
      "t_bool": {
        "encoding": "inplace",
        "label": "bool",
        "numberOfBytes": "1"
      },
      "t_contract(InfinityMintStorage)6826": {
        "encoding": "inplace",
        "label": "contract InfinityMintStorage",
        "numberOfBytes": "20"
      },
      "t_contract(InfinityMintValues)7222": {
        "encoding": "inplace",
        "label": "contract InfinityMintValues",
        "numberOfBytes": "20"
      },
      "t_contract(Minter)7648": {
        "encoding": "inplace",
        "label": "contract Minter",
        "numberOfBytes": "20"
      },
      "t_contract(Royalty)8284": {
        "encoding": "inplace",
        "label": "contract Royalty",
        "numberOfBytes": "20"
      },
      "t_mapping(t_address,t_bool)": {
        "encoding": "mapping",
        "key": "t_address",
        "label": "mapping(address => bool)",
        "numberOfBytes": "32",
        "value": "t_bool"
      },
      "t_mapping(t_address,t_mapping(t_address,t_bool))": {
        "encoding": "mapping",
        "key": "t_address",
        "label": "mapping(address => mapping(address => bool))",
        "numberOfBytes": "32",
        "value": "t_mapping(t_address,t_bool)"
      },
      "t_mapping(t_address,t_uint256)": {
        "encoding": "mapping",
        "key": "t_address",
        "label": "mapping(address => uint256)",
        "numberOfBytes": "32",
        "value": "t_uint256"
      },
      "t_mapping(t_uint256,t_address)": {
        "encoding": "mapping",
        "key": "t_uint256",
        "label": "mapping(uint256 => address)",
        "numberOfBytes": "32",
        "value": "t_address"
      },
      "t_mapping(t_uint256,t_string_storage)": {
        "encoding": "mapping",
        "key": "t_uint256",
        "label": "mapping(uint256 => string)",
        "numberOfBytes": "32",
        "value": "t_string_storage"
      },
      "t_string_storage": {
        "encoding": "bytes",
        "label": "string",
        "numberOfBytes": "32"
      },
      "t_uint256": {
        "encoding": "inplace",
        "label": "uint256",
        "numberOfBytes": "32"
      },
      "t_uint32": {
        "encoding": "inplace",
        "label": "uint32",
        "numberOfBytes": "4"
      }
    }
  }
}