{
  "address": "0x53C6db489fD5Fe31eb4D8Db87f931e82417911C9",
  "abi": [
    {
      "inputs": [
        {
          "internalType": "address",
          "name": "_storageDestination",
          "type": "address"
        },
        {
          "internalType": "address",
          "name": "erc721Destination",
          "type": "address"
        }
      ],
      "stateMutability": "nonpayable",
      "type": "constructor"
    },
    {
      "anonymous": false,
      "inputs": [
        {
          "indexed": true,
          "internalType": "address",
          "name": "sender",
          "type": "address"
        },
        {
          "indexed": true,
          "internalType": "address",
          "name": "changee",
          "type": "address"
        },
        {
          "indexed": false,
          "internalType": "bool",
          "name": "value",
          "type": "bool"
        }
      ],
      "name": "PermissionChange",
      "type": "event"
    },
    {
      "anonymous": false,
      "inputs": [
        {
          "indexed": true,
          "internalType": "address",
          "name": "from",
          "type": "address"
        },
        {
          "indexed": true,
          "internalType": "address",
          "name": "to",
          "type": "address"
        }
      ],
      "name": "TransferedOwnership",
      "type": "event"
    },
    {
      "inputs": [
        {
          "internalType": "uint256",
          "name": "index",
          "type": "uint256"
        },
        {
          "internalType": "string",
          "name": "key",
          "type": "string"
        },
        {
          "internalType": "bytes",
          "name": "versionType",
          "type": "bytes"
        },
        {
          "internalType": "bool",
          "name": "isErc721",
          "type": "bool"
        },
        {
          "internalType": "bool",
          "name": "verifyIntegrity",
          "type": "bool"
        },
        {
          "internalType": "bool",
          "name": "forcedOnly",
          "type": "bool"
        },
        {
          "internalType": "bool",
          "name": "permanent",
          "type": "bool"
        }
      ],
      "name": "addSupport",
      "outputs": [],
      "stateMutability": "nonpayable",
      "type": "function"
    },
    {
      "inputs": [
        {
          "internalType": "address",
          "name": "",
          "type": "address"
        }
      ],
      "name": "approved",
      "outputs": [
        {
          "internalType": "bool",
          "name": "",
          "type": "bool"
        }
      ],
      "stateMutability": "view",
      "type": "function"
    },
    {
      "inputs": [
        {
          "internalType": "string",
          "name": "keyToChange",
          "type": "string"
        },
        {
          "internalType": "string",
          "name": "key",
          "type": "string"
        }
      ],
      "name": "changeLinkKey",
      "outputs": [],
      "stateMutability": "nonpayable",
      "type": "function"
    },
    {
      "inputs": [],
      "name": "clearLinks",
      "outputs": [],
      "stateMutability": "nonpayable",
      "type": "function"
    },
    {
      "inputs": [],
      "name": "deployer",
      "outputs": [
        {
          "internalType": "address",
          "name": "",
          "type": "address"
        }
      ],
      "stateMutability": "view",
      "type": "function"
    },
    {
      "inputs": [],
      "name": "erc721Location",
      "outputs": [
        {
          "internalType": "address",
          "name": "",
          "type": "address"
        }
      ],
      "stateMutability": "view",
      "type": "function"
    },
    {
      "inputs": [
        {
          "internalType": "uint256",
          "name": "tokenId",
          "type": "uint256"
        },
        {
          "internalType": "string",
          "name": "key",
          "type": "string"
        },
        {
          "internalType": "address",
          "name": "destination",
          "type": "address"
        }
      ],
      "name": "forceLink",
      "outputs": [],
      "stateMutability": "nonpayable",
      "type": "function"
    },
    {
      "inputs": [
        {
          "internalType": "uint256",
          "name": "index",
          "type": "uint256"
        }
      ],
      "name": "getLink",
      "outputs": [
        {
          "components": [
            {
              "internalType": "uint256",
              "name": "index",
              "type": "uint256"
            },
            {
              "internalType": "bytes",
              "name": "versionType",
              "type": "bytes"
            },
            {
              "internalType": "bytes4",
              "name": "interfaceId",
              "type": "bytes4"
            },
            {
              "internalType": "string",
              "name": "key",
              "type": "string"
            },
            {
              "internalType": "bool",
              "name": "erc721",
              "type": "bool"
            },
            {
              "internalType": "bool",
              "name": "verifyIntegrity",
              "type": "bool"
            },
            {
              "internalType": "bool",
              "name": "forcedOnly",
              "type": "bool"
            },
            {
              "internalType": "bool",
              "name": "permanent",
              "type": "bool"
            },
            {
              "internalType": "bool",
              "name": "active",
              "type": "bool"
            }
          ],
          "internalType": "struct InfinityMintLinker.Link",
          "name": "",
          "type": "tuple"
        }
      ],
      "stateMutability": "view",
      "type": "function"
    },
    {
      "inputs": [
        {
          "internalType": "string",
          "name": "key",
          "type": "string"
        }
      ],
      "name": "getLinkByKey",
      "outputs": [
        {
          "components": [
            {
              "internalType": "uint256",
              "name": "index",
              "type": "uint256"
            },
            {
              "internalType": "bytes",
              "name": "versionType",
              "type": "bytes"
            },
            {
              "internalType": "bytes4",
              "name": "interfaceId",
              "type": "bytes4"
            },
            {
              "internalType": "string",
              "name": "key",
              "type": "string"
            },
            {
              "internalType": "bool",
              "name": "erc721",
              "type": "bool"
            },
            {
              "internalType": "bool",
              "name": "verifyIntegrity",
              "type": "bool"
            },
            {
              "internalType": "bool",
              "name": "forcedOnly",
              "type": "bool"
            },
            {
              "internalType": "bool",
              "name": "permanent",
              "type": "bool"
            },
            {
              "internalType": "bool",
              "name": "active",
              "type": "bool"
            }
          ],
          "internalType": "struct InfinityMintLinker.Link",
          "name": "",
          "type": "tuple"
        }
      ],
      "stateMutability": "view",
      "type": "function"
    },
    {
      "inputs": [
        {
          "internalType": "address",
          "name": "addr",
          "type": "address"
        }
      ],
      "name": "isAuthenticated",
      "outputs": [
        {
          "internalType": "bool",
          "name": "",
          "type": "bool"
        }
      ],
      "stateMutability": "view",
      "type": "function"
    },
    {
      "inputs": [
        {
          "internalType": "address[]",
          "name": "addrs",
          "type": "address[]"
        }
      ],
      "name": "multiApprove",
      "outputs": [],
      "stateMutability": "nonpayable",
      "type": "function"
    },
    {
      "inputs": [
        {
          "internalType": "uint256",
          "name": "tokenId",
          "type": "uint256"
        },
        {
          "internalType": "string",
          "name": "key",
          "type": "string"
        },
        {
          "internalType": "address",
          "name": "destination",
          "type": "address"
        }
      ],
      "name": "setLink",
      "outputs": [],
      "stateMutability": "nonpayable",
      "type": "function"
    },
    {
      "inputs": [
        {
          "internalType": "address",
          "name": "addr",
          "type": "address"
        },
        {
          "internalType": "bool",
          "name": "value",
          "type": "bool"
        }
      ],
      "name": "setPrivilages",
      "outputs": [],
      "stateMutability": "nonpayable",
      "type": "function"
    },
    {
      "inputs": [
        {
          "internalType": "uint256",
          "name": "index",
          "type": "uint256"
        }
      ],
      "name": "toggleSupport",
      "outputs": [],
      "stateMutability": "nonpayable",
      "type": "function"
    },
    {
      "inputs": [
        {
          "internalType": "address",
          "name": "addr",
          "type": "address"
        }
      ],
      "name": "transferOwnership",
      "outputs": [],
      "stateMutability": "nonpayable",
      "type": "function"
    },
    {
      "inputs": [
        {
          "internalType": "uint256",
          "name": "tokenId",
          "type": "uint256"
        },
        {
          "internalType": "string",
          "name": "key",
          "type": "string"
        }
      ],
      "name": "unlink",
      "outputs": [],
      "stateMutability": "nonpayable",
      "type": "function"
    }
  ],
  "transactionHash": "0x50992f6e64ee744f5828370a173f98def54b712ffa14bb9d8eba8547e608d390",
  "args": [
    "0x253d9d729f6e775E283fEbf4Fc1329d43Da5f0Ac",
    "0x242BEbAcd80CF66cd51c71436968A286E5522034"
  ],
  "numDeployments": 1,
  "solcInputHash": "b0f3f5743d043d6d0147204e57adad5c",
  "bytecode": "0x608060405260006006553480156200001657600080fd5b5060405162002e2e38038062002e2e8339810160408190526200003991620000b0565b60008054336001600160a01b0319918216811783558252600260205260408220805460ff19166001908117909155919091556004805482166001600160a01b039485161790556003805490911691909216179055620000e8565b80516001600160a01b0381168114620000ab57600080fd5b919050565b60008060408385031215620000c457600080fd5b620000cf8362000093565b9150620000df6020840162000093565b90509250929050565b612d3680620000f86000396000f3fe608060405234801561001057600080fd5b50600436106100d05760003560e01c806310a8c7a9146100d557806313e7f9e7146100ea57806314e62d8b1461011357806314ea079d146101265780632a8624ed146101395780632f9fe8cf14610164578063393b6df31461017757806375ca64fe1461018a5780639e95226714610192578063bbdc2e65146101a5578063d15d4150146101b8578063d25146b0146101db578063d5f39488146101ee578063d8b964e614610201578063f2fde38b14610224578063fe684c0e14610237575b600080fd5b6100e86100e33660046120f9565b61024a565b005b6100fd6100f83660046121df565b6102ea565b60405161010a9190612278565b60405180910390f35b6100e86101213660046123d2565b610305565b6100e8610134366004612498565b61055c565b60035461014c906001600160a01b031681565b6040516001600160a01b03909116815260200161010a565b6100e86101723660046124b1565b610619565b6100fd610185366004612498565b610812565b6100e8610a36565b6100e86101a036600461251c565b610abb565b6100e86101b3366004612567565b610eb5565b6101cb6101c63660046125c5565b610eed565b604051901515815260200161010a565b6100e86101e9366004612567565b610f24565b60005461014c906001600160a01b031681565b6101cb61020f3660046125c5565b60026020526000908152604090205460ff1681565b6100e86102323660046125c5565b61129a565b6100e86102453660046125e9565b61133a565b6000546001600160a01b0316331461027d5760405162461bcd60e51b815260040161027490612622565b60405180910390fd5b805161028857600080fd5b60005b81518110156102e6576001600260008484815181106102ac576102ac612648565b6020908102919091018101516001600160a01b03168252810191909152604001600020805460ff191691151591909117905560010161028b565b5050565b6102f2611f68565b6102fc838361141c565b90505b92915050565b6000546001600160a01b031633148061032d57503360009081526002602052604090205460ff165b6103495760405162461bcd60e51b81526004016102749061265e565b602087106103a55760405162461bcd60e51b815260206004820152602360248201527f63616e206f6e6c7920686176652061206d6178696d756d20696e646578206f6660448201526210199960e91b6064820152608401610274565b600087815260056020526040902060040154600160201b900460ff1615156001141561040e5760405162461bcd60e51b81526020600482015260186024820152771b1a5b9ac8185b1c9958591e48195cdd18589b1a5cda195960421b6044820152606401610274565b604080516101208101825288815260208082018881526335268a9f60e21b83850152606083018a9052871515608084015286151560a084015285151560c084015284151560e08401526001610100840181905260008c8152600584529490942083518155905180519394919361048c93928501929190910190611fb6565b50604082015160028201805463ffffffff191660e09290921c919091179055606082015180516104c6916003840191602090910190611fb6565b506080820151600491909101805460a084015160c085015160e08601516101009687015161ffff1990941695151561ff001916959095179115159095021763ffff00001916620100009415159490940263ff0000001916939093176301000000921515929092029190911760ff60201b1916600160201b9215159290920291909117905550506006805460010190555050505050565b6000546001600160a01b031633148061058457503360009081526002602052604090205460ff165b6105a05760405162461bcd60e51b81526004016102749061265e565b600081815260056020526040902060030180546105bc90612684565b151590506105fb5760405162461bcd60e51b815260206004820152600c60248201526b696e76616c6964206c696e6b60a01b6044820152606401610274565b6000908152600560205260409020600401805460ff60201b19169055565b6000546001600160a01b031633148061064157503360009081526002602052604090205460ff165b61065d5760405162461bcd60e51b81526004016102749061265e565b6000610669858561141c565b90506106758383611766565b156106e35760405162461bcd60e51b815260206004820152603860248201527f63616e6e6f74206368616e6765206b657920746f2074686174206b65792061736044820152772074686174206b657920616c72656164792065786973747360401b6064820152608401610274565b82828080601f016020809104026020016040519081016040528093929190818152602001838380828437600092018290525060608601949094525050825182525060056020908152604090912082518155818301518051849361074d926001850192910190611fb6565b50604082015160028201805463ffffffff191660e09290921c91909117905560608201518051610787916003840191602090910190611fb6565b506080820151600491909101805460a084015160c085015160e08601516101009687015161ffff1990941695151561ff001916959095179115159095021763ffff00001916620100009415159490940263ff0000001916939093176301000000921515929092029190911760ff60201b1916600160201b921515929092029190911790555050505050565b61081a611f68565b6000828152600560205260409020600301805461083690612684565b151590506108785760405162461bcd60e51b815260206004820152600f60248201526e1b1a5b9ac81a5cc81a5b9d985b1a59608a1b6044820152606401610274565b6005600083815260200190815260200160002060405180610120016040529081600082015481526020016001820180546108b190612684565b80601f01602080910402602001604051908101604052809291908181526020018280546108dd90612684565b801561092a5780601f106108ff5761010080835404028352916020019161092a565b820191906000526020600020905b81548152906001019060200180831161090d57829003601f168201915b5050509183525050600282015460e01b6001600160e01b031916602082015260038201805460409092019161095e90612684565b80601f016020809104026020016040519081016040528092919081815260200182805461098a90612684565b80156109d75780601f106109ac576101008083540402835291602001916109d7565b820191906000526020600020905b8154815290600101906020018083116109ba57829003601f168201915b50505091835250506004919091015460ff80821615156020840152610100820481161515604084015262010000820481161515606084015263010000008204811615156080840152600160201b90910416151560a09091015292915050565b6000546001600160a01b03163314610a605760405162461bcd60e51b815260040161027490612622565b60005b600654811015610ab357600081815260056020526040902060040154600160201b900460ff1615610aab576000818152600560205260409020600401805460ff60201b191690555b600101610a63565b506000600655565b610ac533846118b2565b610ae15760405162461bcd60e51b8152600401610274906126bf565b6000610aed838361141c565b60048054604051636c51371d60e11b815263ffffffff8816928101929092529192506000916001600160a01b03169063d8a26e3a90602401600060405180830381865afa158015610b42573d6000803e3d6000fd5b505050506040513d6000823e601f3d908101601f19168201604052610b6a91908101906128b6565b90508160e001511515600115151415610bc25760405162461bcd60e51b815260206004820152601a6024820152791b1a5b9ac818d85b881b995d995c881899481d5b9b1a5b9ad95960321b6044820152606401610274565b60c0820151151560011415610c335760405162461bcd60e51b815260206004820152603160248201527f6c696e6b206d757374206265206d616e61676564207468726f75676820616e20604482015270195e1d195c9b985b0818dbdb9d1c9858dd607a1b6064820152608401610274565b8151151580610ccd5750600480546040805163db8b7da360e01b81529283018890526024830152600f60448301526e063616e556e6c696e6b496e6465783608c1b60648301526001600160a01b03169063db8b7da390608401602060405180830381865afa158015610ca9573d6000803e3d6000fd5b505050506040513d601f19601f82011682018060405250810190610ccd91906129fb565b610d295760405162461bcd60e51b815260206004820152602760248201527f696e64657820302063616e6e6f7420626520756e6c696e6b656420617420746860448201526669732074696d6560c81b6064820152608401610274565b81516001141580610dc55750600480546040805163db8b7da360e01b81529283018890526024830152600f60448301526e63616e556e6c696e6b496e6465783160881b60648301526001600160a01b03169063db8b7da390608401602060405180830381865afa158015610da1573d6000803e3d6000fd5b505050506040513d601f19601f82011682018060405250810190610dc591906129fb565b610e215760405162461bcd60e51b815260206004820152602760248201527f696e64657820312063616e6e6f7420626520756e6c696e6b656420617420746860448201526669732074696d6560c81b6064820152608401610274565b6000816101000151836000015181518110610e3e57610e3e612648565b6001600160a01b0392831660209182029290920101526004805460405163c28cf06160e01b815292169163c28cf06191610e7c918991869101612ae7565b600060405180830381600087803b158015610e9657600080fd5b505af1158015610eaa573d6000803e3d6000fd5b505050505050505050565b610ebf33856118b2565b610edb5760405162461bcd60e51b8152600401610274906126bf565b610ee7848484846119d8565b50505050565b600080546001600160a01b03838116911614806102ff5750506001600160a01b031660009081526002602052604090205460ff1690565b6000546001600160a01b0316331480610f4c57503360009081526002602052604090205460ff165b610f685760405162461bcd60e51b81526004016102749061265e565b6000610f74848461141c565b60048054604051636c51371d60e11b815263ffffffff8916928101929092529192506000916001600160a01b03169063d8a26e3a90602401600060405180830381865afa158015610fc9573d6000803e3d6000fd5b505050506040513d6000823e601f3d908101601f19168201604052610ff191908101906128b6565b9050806101000151516000141561109357815161100f906001612c00565b6001600160401b038111156110265761102661204f565b60405190808252806020026020018201604052801561104f578160200160208202803683370190505b5061010082018190528251815185929190811061106e5761106e612648565b60200260200101906001600160a01b031690816001600160a01b03168152505061122f565b610100810151518251106111f25781516000906110b1906001612c00565b6001600160401b038111156110c8576110c861204f565b6040519080825280602002602001820160405280156110f1578160200160208202803683370190505b50905060005b81518110156111e6578351811415611141578482828151811061111c5761111c612648565b60200260200101906001600160a01b031690816001600160a01b0316815250506111de565b8261010001515181108015611187575060006001600160a01b0316836101000151828151811061117357611173612648565b60200260200101516001600160a01b031614155b156111de5782610100015181815181106111a3576111a3612648565b60200260200101518282815181106111bd576111bd612648565b60200260200101906001600160a01b031690816001600160a01b0316815250505b6001016110f7565b5061010082015261122f565b8281610100015183600001518151811061120e5761120e612648565b60200260200101906001600160a01b031690816001600160a01b0316815250505b6004805460405163c28cf06160e01b81526001600160a01b039091169163c28cf06191611260918a91869101612ae7565b600060405180830381600087803b15801561127a57600080fd5b505af115801561128e573d6000803e3d6000fd5b50505050505050505050565b6000546001600160a01b031633146112c45760405162461bcd60e51b815260040161027490612622565b600080546001600160a01b03908116825260026020526040808320805460ff1990811690915583546001600160a01b03191692851692831784558284528184208054909116600117905551909133917f93091b3f3cd424efabc74e181f3799f3476ed758412561ed3b29515c51f567529190a350565b6000546001600160a01b031633146113645760405162461bcd60e51b815260040161027490612622565b6000546001600160a01b03838116911614156113bb5760405162461bcd60e51b815260206004820152601660248201527531b0b73737ba1036b7b234b33c903232b83637bcb2b960511b6044820152606401610274565b6001600160a01b038216600081815260026020908152604091829020805460ff1916851515908117909155915191825233917ff38de818d000d07d091732dd783c6855722d7bc1934d92b7635133289d341695910160405180910390a35050565b611424611f68565b816114415760405162461bcd60e51b815260040161027490612c18565b611449611f68565b6000805b6006548110156117225760008181526005602052604090206003018054611532919061147890612684565b80601f01602080910402602001604051908101604052809291908181526020018280546114a490612684565b80156114f15780601f106114c6576101008083540402835291602001916114f1565b820191906000526020600020905b8154815290600101906020018083116114d457829003601f168201915b505050505087878080601f016020809104026020016040519081016040528093929190818152602001838380828437600092019190915250611ec692505050565b80156115565750600081815260056020526040902060040154600160201b900460ff165b1561171a576001915060056000828152602001908152602001600020604051806101200160405290816000820154815260200160018201805461159890612684565b80601f01602080910402602001604051908101604052809291908181526020018280546115c490612684565b80156116115780601f106115e657610100808354040283529160200191611611565b820191906000526020600020905b8154815290600101906020018083116115f457829003601f168201915b5050509183525050600282015460e01b6001600160e01b031916602082015260038201805460409092019161164590612684565b80601f016020809104026020016040519081016040528092919081815260200182805461167190612684565b80156116be5780601f10611693576101008083540402835291602001916116be565b820191906000526020600020905b8154815290600101906020018083116116a157829003601f168201915b50505091835250506004919091015460ff80821615156020840152610100820481161515604084015262010000820481161515606084015263010000008204811615156080840152600160201b90910416151560a09091015292505b60010161144d565b508061175e5760405162461bcd60e51b815260206004820152600b60248201526a1ad95e481a5b9d985b1a5960aa1b6044820152606401610274565b509392505050565b6000816117855760405162461bcd60e51b815260040161027490612c18565b60005b6006548110156118a8576000818152600560205260409020600301805461186d91906117b390612684565b80601f01602080910402602001604051908101604052809291908181526020018280546117df90612684565b801561182c5780601f106118015761010080835404028352916020019161182c565b820191906000526020600020905b81548152906001019060200180831161180f57829003601f168201915b505050505085858080601f016020809104026020016040519081016040528093929190818152602001838380828437600092019190915250611ec692505050565b80156118915750600081815260056020526040902060040154600160201b900460ff165b156118a05760019150506102ff565b600101611788565b5060009392505050565b6003546040516001600160a01b03848116602483015260448201849052600092839283929091169060640160408051601f198184030181529181526020820180516001600160e01b031663430c208160e01b179052516119129190612c3b565b600060405180830381855afa9150503d806000811461194d576040519150601f19603f3d011682016040523d82523d6000602084013e611952565b606091505b5091509150816119b35780516119aa5760405162461bcd60e51b815260206004820152601d60248201527f697320617070726f766564206f72206f776e65722072657665727465640000006044820152606401610274565b80518082602001fd5b6000818060200190518101906119c991906129fb565b15156001149695505050505050565b60006119e4848461141c565b60048054604051636c51371d60e11b815263ffffffff8916928101929092529192506000916001600160a01b03169063d8a26e3a90602401600060405180830381865afa158015611a39573d6000803e3d6000fd5b505050506040513d6000823e601f3d908101601f19168201604052611a6191908101906128b6565b90508160c001511515600115151415611ab65760405162461bcd60e51b815260206004820152601760248201527631b0b73737ba1031329039b2ba10313c903634b735b2b960491b6044820152606401610274565b610100810151511580611b09575061010081015151825110611ad9576001611b09565b6101008101518251815160009291908110611af657611af6612648565b60200260200101516001600160a01b0316145b611b5f5760405162461bcd60e51b815260206004820152602160248201527f70726576696f7573206c696e6b20616c72656164792065737461626c697368656044820152601960fa1b6064820152608401610274565b8160a0015115611d5b576000806000806000876001600160a01b031663d49a2a7c6040518163ffffffff1660e01b81526004016000604051808303816000875af1158015611bb1573d6000803e3d6000fd5b505050506040513d6000823e601f3d908101601f19168201604052611bd99190810190612c57565b94509450945094509450611bea3390565b6001600160a01b0316846001600160a01b031614611c375760405162461bcd60e51b815260206004820152600a60248201526906d69736d6174636820360b41b6044820152606401610274565b876001600160a01b0316856001600160a01b031614611c855760405162461bcd60e51b815260206004820152600a6024820152696d69736d61746368203160b01b6044820152606401610274565b828b14611cc15760405162461bcd60e51b815260206004820152600a60248201526936b4b9b6b0ba31b4101960b11b6044820152606401610274565b611ccf828860200151611ec6565b611d085760405162461bcd60e51b815260206004820152600a6024820152696d69736d61746368203360b01b6044820152606401610274565b60408701516001600160e01b0319828116911614611d555760405162461bcd60e51b815260206004820152600a6024820152691b5a5cdb585d18da080d60b21b6044820152606401610274565b50505050505b61010081015151611d7357815161100f906001612c00565b610100810151518251106111f2578151600090611d91906001612c00565b6001600160401b03811115611da857611da861204f565b604051908082528060200260200182016040528015611dd1578160200160208202803683370190505b50905060005b81518110156111e6578351811415611e215784828281518110611dfc57611dfc612648565b60200260200101906001600160a01b031690816001600160a01b031681525050611ebe565b8261010001515181108015611e67575060006001600160a01b03168361010001518281518110611e5357611e53612648565b60200260200101516001600160a01b031614155b15611ebe578261010001518181518110611e8357611e83612648565b6020026020010151828281518110611e9d57611e9d612648565b60200260200101906001600160a01b031690816001600160a01b0316815250505b600101611dd7565b8151815160009184918491908114611ee457600093505050506102ff565b60005b81811015611f5b57828181518110611f0157611f01612648565b602001015160f81c60f81b6001600160f81b031916848281518110611f2857611f28612648565b01602001516001600160f81b03191614611f495760009450505050506102ff565b80611f5381612ce5565b915050611ee7565b5060019695505050505050565b60408051610120810182526000808252606060208301819052928201819052828201929092526080810182905260a0810182905260c0810182905260e0810182905261010081019190915290565b828054611fc290612684565b90600052602060002090601f016020900481019282611fe4576000855561202a565b82601f10611ffd57805160ff191683800117855561202a565b8280016001018555821561202a579182015b8281111561202a57825182559160200191906001019061200f565b5061203692915061203a565b5090565b5b80821115612036576000815560010161203b565b634e487b7160e01b600052604160045260246000fd5b60405161012081016001600160401b03811182821017156120885761208861204f565b60405290565b604051601f8201601f191681016001600160401b03811182821017156120b6576120b661204f565b604052919050565b60006001600160401b038211156120d7576120d761204f565b5060051b60200190565b6001600160a01b03811681146120f657600080fd5b50565b6000602080838503121561210c57600080fd5b82356001600160401b0381111561212257600080fd5b8301601f8101851361213357600080fd5b8035612146612141826120be565b61208e565b81815260059190911b8201830190838101908783111561216557600080fd5b928401925b8284101561218c57833561217d816120e1565b8252928401929084019061216a565b979650505050505050565b60008083601f8401126121a957600080fd5b5081356001600160401b038111156121c057600080fd5b6020830191508360208285010111156121d857600080fd5b9250929050565b600080602083850312156121f257600080fd5b82356001600160401b0381111561220857600080fd5b61221485828601612197565b90969095509350505050565b60005b8381101561223b578181015183820152602001612223565b83811115610ee75750506000910152565b60008151808452612264816020860160208601612220565b601f01601f19169290920160200192915050565b6020815281516020820152600060208301516101208060408501526122a161014085018361224c565b915060408501516122be60608601826001600160e01b0319169052565b506060850151848303601f190160808601526122da838261224c565b92505060808501516122f060a086018215159052565b5060a085015180151560c08601525060c085015180151560e08601525060e08501516101006123228187018315159052565b90950151151593019290925250919050565b60006001600160401b0382111561234d5761234d61204f565b50601f01601f191660200190565b600061236961214184612334565b905082815283838301111561237d57600080fd5b828260208301376000602084830101529392505050565b600082601f8301126123a557600080fd5b6102fc8383356020850161235b565b80151581146120f657600080fd5b80356123cd816123b4565b919050565b600080600080600080600060e0888a0312156123ed57600080fd5b8735965060208801356001600160401b038082111561240b57600080fd5b818a0191508a601f83011261241f57600080fd5b61242e8b83356020850161235b565b975060408a013591508082111561244457600080fd5b506124518a828b01612394565b955050612460606089016123c2565b935061246e608089016123c2565b925061247c60a089016123c2565b915061248a60c089016123c2565b905092959891949750929550565b6000602082840312156124aa57600080fd5b5035919050565b600080600080604085870312156124c757600080fd5b84356001600160401b03808211156124de57600080fd5b6124ea88838901612197565b9096509450602087013591508082111561250357600080fd5b5061251087828801612197565b95989497509550505050565b60008060006040848603121561253157600080fd5b8335925060208401356001600160401b0381111561254e57600080fd5b61255a86828701612197565b9497909650939450505050565b6000806000806060858703121561257d57600080fd5b8435935060208501356001600160401b0381111561259a57600080fd5b6125a687828801612197565b90945092505060408501356125ba816120e1565b939692955090935050565b6000602082840312156125d757600080fd5b81356125e2816120e1565b9392505050565b600080604083850312156125fc57600080fd5b8235612607816120e1565b91506020830135612617816123b4565b809150509250929050565b6020808252600c908201526b3737ba103232b83637bcb2b960a11b604082015260600190565b634e487b7160e01b600052603260045260246000fd5b6020808252600c908201526b1b9bdd08185c1c1c9bdd995960a21b604082015260600190565b600181811c9082168061269857607f821691505b602082108114156126b957634e487b7160e01b600052602260045260246000fd5b50919050565b6020808252600990820152683737ba1037bbb732b960b91b604082015260600190565b805163ffffffff811681146123cd57600080fd5b80516123cd816120e1565b600082601f83011261271257600080fd5b81516020612722612141836120be565b82815260059290921b8401810191818101908684111561274157600080fd5b8286015b8481101561276357612756816126e2565b8352918301918301612745565b509695505050505050565b600061277c61214184612334565b905082815283838301111561279057600080fd5b6125e2836020830184612220565b600082601f8301126127af57600080fd5b6102fc8383516020850161276e565b600082601f8301126127cf57600080fd5b815160206127df612141836120be565b82815260059290921b840181019181810190868411156127fe57600080fd5b8286015b848110156127635780516001600160401b038111156128215760008081fd5b8701603f810189136128335760008081fd5b61284489868301516040840161276e565b845250918301918301612802565b600082601f83011261286357600080fd5b81516020612873612141836120be565b82815260059290921b8401810191818101908684111561289257600080fd5b8286015b848110156127635780516128a9816120e1565b8352918301918301612896565b6000602082840312156128c857600080fd5b81516001600160401b03808211156128df57600080fd5b9083019061012082860312156128f457600080fd5b6128fc612065565b612905836126e2565b8152612913602084016126e2565b6020820152612924604084016126e2565b6040820152612935606084016126f6565b606082015260808301518281111561294c57600080fd5b61295887828601612701565b60808301525060a08301518281111561297057600080fd5b61297c8782860161279e565b60a08301525060c08301518281111561299457600080fd5b6129a087828601612701565b60c08301525060e0830151828111156129b857600080fd5b6129c4878286016127be565b60e08301525061010080840151838111156129de57600080fd5b6129ea88828701612852565b918301919091525095945050505050565b600060208284031215612a0d57600080fd5b81516125e2816123b4565b600081518084526020808501945080840160005b83811015612a4e57815163ffffffff1687529582019590820190600101612a2c565b509495945050505050565b600081518084526020808501808196508360051b8101915082860160005b85811015612aa1578284038952612a8f84835161224c565b98850198935090840190600101612a77565b5091979650505050505050565b600081518084526020808501945080840160005b83811015612a4e5781516001600160a01b031687529582019590820190600101612ac2565b63ffffffff8316815260406020820152612b0a60408201835163ffffffff169052565b60006020830151612b23606084018263ffffffff169052565b50604083015163ffffffff811660808401525060608301516001600160a01b03811660a08401525060808301516101208060c0850152612b67610160850183612a18565b915060a0850151603f19808685030160e0870152612b85848361224c565b935060c08701519150610100818786030181880152612ba48584612a18565b945060e08801519250818786030184880152612bc08584612a59565b94508088015193505080868503016101408701525050612be08282612aae565b9695505050505050565b634e487b7160e01b600052601160045260246000fd5b60008219821115612c1357612c13612bea565b500190565b602080825260099082015268626c616e6b206b657960b81b604082015260600190565b60008251612c4d818460208701612220565b9190910192915050565b600080600080600060a08688031215612c6f57600080fd5b8551612c7a816120e1565b6020870151909550612c8b816120e1565b6040870151606088015191955093506001600160401b03811115612cae57600080fd5b612cba8882890161279e565b925050608086015163ffffffff60e01b81168114612cd757600080fd5b809150509295509295909350565b6000600019821415612cf957612cf9612bea565b506001019056fea26469706673582212209ec4db4a061513aab629a4d5845961ee4d5c70fc7363b39ea1900666b40d822164736f6c634300080c0033",
  "libraries": {
    "InfinityMintUtil": "0xd7fcAa6A3e68e4eDAb6eA551594cF60CCe436F73"
  },
  "devdoc": {
    "author": "Llydia Cross",
    "details": "Allows content owners to add pre-validated links the user can add to their destinations field, contract creator sets links through build tools",
    "kind": "dev",
    "methods": {},
    "title": "InfinityMint Linker",
    "version": 1
  },
  "userdoc": {
    "kind": "user",
    "methods": {
      "clearLinks()": {
        "notice": "used by build tools to redeploy"
      },
      "erc721Location()": {
        "notice": "the location of the main ERC721 contract"
      },
      "forceLink(uint256,string,address)": {
        "notice": "Can be called by other contracts who are approved"
      },
      "setLink(uint256,string,address)": {
        "notice": "has to be called by token owner"
      },
      "toggleSupport(uint256)": {
        "notice": "disables this link from being used in the future"
      }
    },
    "notice": "Serves as a utility contract which manages the destinations field of an InfinityMint token",
    "version": 1
  },
  "storageLayout": {
    "storage": [
      {
        "astId": 458,
        "contract": "contracts/InfinityMintLinker.sol:InfinityMintLinker",
        "label": "deployer",
        "offset": 0,
        "slot": "0",
        "type": "t_address"
      },
      {
        "astId": 461,
        "contract": "contracts/InfinityMintLinker.sol:InfinityMintLinker",
        "label": "executionCount",
        "offset": 0,
        "slot": "1",
        "type": "t_uint256"
      },
      {
        "astId": 465,
        "contract": "contracts/InfinityMintLinker.sol:InfinityMintLinker",
        "label": "approved",
        "offset": 0,
        "slot": "2",
        "type": "t_mapping(t_address,t_bool)"
      },
      {
        "astId": 4590,
        "contract": "contracts/InfinityMintLinker.sol:InfinityMintLinker",
        "label": "erc721Location",
        "offset": 0,
        "slot": "3",
        "type": "t_address"
      },
      {
        "astId": 4594,
        "contract": "contracts/InfinityMintLinker.sol:InfinityMintLinker",
        "label": "storageController",
        "offset": 0,
        "slot": "4",
        "type": "t_contract(InfinityMintStorage)6826"
      },
      {
        "astId": 4600,
        "contract": "contracts/InfinityMintLinker.sol:InfinityMintLinker",
        "label": "links",
        "offset": 0,
        "slot": "5",
        "type": "t_mapping(t_uint256,t_struct(Link)4623_storage)"
      },
      {
        "astId": 4604,
        "contract": "contracts/InfinityMintLinker.sol:InfinityMintLinker",
        "label": "linkCount",
        "offset": 0,
        "slot": "6",
        "type": "t_uint256"
      }
    ],
    "types": {
      "t_address": {
        "encoding": "inplace",
        "label": "address",
        "numberOfBytes": "20"
      },
      "t_bool": {
        "encoding": "inplace",
        "label": "bool",
        "numberOfBytes": "1"
      },
      "t_bytes4": {
        "encoding": "inplace",
        "label": "bytes4",
        "numberOfBytes": "4"
      },
      "t_bytes_storage": {
        "encoding": "bytes",
        "label": "bytes",
        "numberOfBytes": "32"
      },
      "t_contract(InfinityMintStorage)6826": {
        "encoding": "inplace",
        "label": "contract InfinityMintStorage",
        "numberOfBytes": "20"
      },
      "t_mapping(t_address,t_bool)": {
        "encoding": "mapping",
        "key": "t_address",
        "label": "mapping(address => bool)",
        "numberOfBytes": "32",
        "value": "t_bool"
      },
      "t_mapping(t_uint256,t_struct(Link)4623_storage)": {
        "encoding": "mapping",
        "key": "t_uint256",
        "label": "mapping(uint256 => struct InfinityMintLinker.Link)",
        "numberOfBytes": "32",
        "value": "t_struct(Link)4623_storage"
      },
      "t_string_storage": {
        "encoding": "bytes",
        "label": "string",
        "numberOfBytes": "32"
      },
      "t_struct(Link)4623_storage": {
        "encoding": "inplace",
        "label": "struct InfinityMintLinker.Link",
        "members": [
          {
            "astId": 4606,
            "contract": "contracts/InfinityMintLinker.sol:InfinityMintLinker",
            "label": "index",
            "offset": 0,
            "slot": "0",
            "type": "t_uint256"
          },
          {
            "astId": 4608,
            "contract": "contracts/InfinityMintLinker.sol:InfinityMintLinker",
            "label": "versionType",
            "offset": 0,
            "slot": "1",
            "type": "t_bytes_storage"
          },
          {
            "astId": 4610,
            "contract": "contracts/InfinityMintLinker.sol:InfinityMintLinker",
            "label": "interfaceId",
            "offset": 0,
            "slot": "2",
            "type": "t_bytes4"
          },
          {
            "astId": 4612,
            "contract": "contracts/InfinityMintLinker.sol:InfinityMintLinker",
            "label": "key",
            "offset": 0,
            "slot": "3",
            "type": "t_string_storage"
          },
          {
            "astId": 4614,
            "contract": "contracts/InfinityMintLinker.sol:InfinityMintLinker",
            "label": "erc721",
            "offset": 0,
            "slot": "4",
            "type": "t_bool"
          },
          {
            "astId": 4616,
            "contract": "contracts/InfinityMintLinker.sol:InfinityMintLinker",
            "label": "verifyIntegrity",
            "offset": 1,
            "slot": "4",
            "type": "t_bool"
          },
          {
            "astId": 4618,
            "contract": "contracts/InfinityMintLinker.sol:InfinityMintLinker",
            "label": "forcedOnly",
            "offset": 2,
            "slot": "4",
            "type": "t_bool"
          },
          {
            "astId": 4620,
            "contract": "contracts/InfinityMintLinker.sol:InfinityMintLinker",
            "label": "permanent",
            "offset": 3,
            "slot": "4",
            "type": "t_bool"
          },
          {
            "astId": 4622,
            "contract": "contracts/InfinityMintLinker.sol:InfinityMintLinker",
            "label": "active",
            "offset": 4,
            "slot": "4",
            "type": "t_bool"
          }
        ],
        "numberOfBytes": "160"
      },
      "t_uint256": {
        "encoding": "inplace",
        "label": "uint256",
        "numberOfBytes": "32"
      }
    }
  }
}