{
  "address": "0x1f2Df2D10FeD7C645c38f16b3CD5bC249D5C5875",
  "abi": [
    {
      "inputs": [
        {
          "internalType": "address",
          "name": "erc721Destination",
          "type": "address"
        }
      ],
      "stateMutability": "nonpayable",
      "type": "constructor"
    },
    {
      "anonymous": false,
      "inputs": [
        {
          "indexed": true,
          "internalType": "address",
          "name": "sender",
          "type": "address"
        },
        {
          "indexed": true,
          "internalType": "address",
          "name": "changee",
          "type": "address"
        },
        {
          "indexed": false,
          "internalType": "bool",
          "name": "value",
          "type": "bool"
        }
      ],
      "name": "PermissionChange",
      "type": "event"
    },
    {
      "anonymous": false,
      "inputs": [
        {
          "indexed": false,
          "internalType": "uint256",
          "name": "tokenId",
          "type": "uint256"
        },
        {
          "indexed": true,
          "internalType": "address",
          "name": "sender",
          "type": "address"
        },
        {
          "indexed": false,
          "internalType": "address",
          "name": "admin",
          "type": "address"
        }
      ],
      "name": "RequestApproved",
      "type": "event"
    },
    {
      "anonymous": false,
      "inputs": [
        {
          "indexed": false,
          "internalType": "uint256",
          "name": "tokenId",
          "type": "uint256"
        },
        {
          "indexed": true,
          "internalType": "address",
          "name": "sender",
          "type": "address"
        },
        {
          "indexed": false,
          "internalType": "address",
          "name": "admin",
          "type": "address"
        }
      ],
      "name": "RequestRejected",
      "type": "event"
    },
    {
      "anonymous": false,
      "inputs": [
        {
          "indexed": false,
          "internalType": "uint256",
          "name": "tokenId",
          "type": "uint256"
        },
        {
          "indexed": true,
          "internalType": "address",
          "name": "sender",
          "type": "address"
        }
      ],
      "name": "RequestSubmitted",
      "type": "event"
    },
    {
      "anonymous": false,
      "inputs": [
        {
          "indexed": true,
          "internalType": "address",
          "name": "from",
          "type": "address"
        },
        {
          "indexed": true,
          "internalType": "address",
          "name": "to",
          "type": "address"
        }
      ],
      "name": "TransferedOwnership",
      "type": "event"
    },
    {
      "inputs": [
        {
          "internalType": "uint256",
          "name": "tokenId",
          "type": "uint256"
        },
        {
          "internalType": "bytes",
          "name": "redemption",
          "type": "bytes"
        }
      ],
      "name": "addRedemption",
      "outputs": [],
      "stateMutability": "nonpayable",
      "type": "function"
    },
    {
      "inputs": [
        {
          "internalType": "uint256[]",
          "name": "_tokenIds",
          "type": "uint256[]"
        },
        {
          "internalType": "bytes[]",
          "name": "redemptions",
          "type": "bytes[]"
        }
      ],
      "name": "addRedemptions",
      "outputs": [],
      "stateMutability": "nonpayable",
      "type": "function"
    },
    {
      "inputs": [
        {
          "internalType": "uint256",
          "name": "tokenId",
          "type": "uint256"
        },
        {
          "internalType": "bytes",
          "name": "redemption",
          "type": "bytes"
        }
      ],
      "name": "approveRedeem",
      "outputs": [],
      "stateMutability": "nonpayable",
      "type": "function"
    },
    {
      "inputs": [
        {
          "internalType": "address",
          "name": "",
          "type": "address"
        }
      ],
      "name": "approved",
      "outputs": [
        {
          "internalType": "bool",
          "name": "",
          "type": "bool"
        }
      ],
      "stateMutability": "view",
      "type": "function"
    },
    {
      "inputs": [],
      "name": "deployer",
      "outputs": [
        {
          "internalType": "address",
          "name": "",
          "type": "address"
        }
      ],
      "stateMutability": "view",
      "type": "function"
    },
    {
      "inputs": [
        {
          "internalType": "uint256",
          "name": "tokenId",
          "type": "uint256"
        }
      ],
      "name": "getActiveRedemption",
      "outputs": [
        {
          "internalType": "bytes",
          "name": "",
          "type": "bytes"
        }
      ],
      "stateMutability": "view",
      "type": "function"
    },
    {
      "inputs": [
        {
          "internalType": "uint256",
          "name": "tokenId",
          "type": "uint256"
        }
      ],
      "name": "getChecks",
      "outputs": [
        {
          "internalType": "bool[]",
          "name": "bools",
          "type": "bool[]"
        }
      ],
      "stateMutability": "view",
      "type": "function"
    },
    {
      "inputs": [],
      "name": "getMyRequestCount",
      "outputs": [
        {
          "internalType": "uint256",
          "name": "",
          "type": "uint256"
        }
      ],
      "stateMutability": "view",
      "type": "function"
    },
    {
      "inputs": [
        {
          "internalType": "uint256",
          "name": "tokenId",
          "type": "uint256"
        }
      ],
      "name": "getRedemptionProof",
      "outputs": [
        {
          "components": [
            {
              "internalType": "address",
              "name": "receiver",
              "type": "address"
            },
            {
              "internalType": "address",
              "name": "admin",
              "type": "address"
            },
            {
              "internalType": "uint256",
              "name": "time",
              "type": "uint256"
            },
            {
              "internalType": "uint256",
              "name": "tokenId",
              "type": "uint256"
            },
            {
              "internalType": "bool",
              "name": "valid",
              "type": "bool"
            }
          ],
          "internalType": "struct Mod_Redemption.SuccessfulRedemption",
          "name": "",
          "type": "tuple"
        }
      ],
      "stateMutability": "view",
      "type": "function"
    },
    {
      "inputs": [
        {
          "internalType": "uint256",
          "name": "tokenId",
          "type": "uint256"
        }
      ],
      "name": "getRequest",
      "outputs": [
        {
          "components": [
            {
              "internalType": "address",
              "name": "sender",
              "type": "address"
            },
            {
              "internalType": "bytes",
              "name": "redemption",
              "type": "bytes"
            },
            {
              "internalType": "bytes",
              "name": "key",
              "type": "bytes"
            },
            {
              "internalType": "bool",
              "name": "valid",
              "type": "bool"
            }
          ],
          "internalType": "struct Mod_Redemption.Request",
          "name": "",
          "type": "tuple"
        }
      ],
      "stateMutability": "view",
      "type": "function"
    },
    {
      "inputs": [
        {
          "internalType": "address",
          "name": "addr",
          "type": "address"
        }
      ],
      "name": "getRequestCount",
      "outputs": [
        {
          "internalType": "uint256",
          "name": "",
          "type": "uint256"
        }
      ],
      "stateMutability": "view",
      "type": "function"
    },
    {
      "inputs": [
        {
          "internalType": "uint256",
          "name": "tokenId",
          "type": "uint256"
        }
      ],
      "name": "getRequestOwner",
      "outputs": [
        {
          "internalType": "address",
          "name": "",
          "type": "address"
        }
      ],
      "stateMutability": "view",
      "type": "function"
    },
    {
      "inputs": [
        {
          "internalType": "uint256",
          "name": "tokenId",
          "type": "uint256"
        }
      ],
      "name": "hasRedeemed",
      "outputs": [
        {
          "internalType": "bool",
          "name": "",
          "type": "bool"
        }
      ],
      "stateMutability": "view",
      "type": "function"
    },
    {
      "inputs": [
        {
          "internalType": "uint256",
          "name": "tokenId",
          "type": "uint256"
        }
      ],
      "name": "hasRequest",
      "outputs": [
        {
          "internalType": "bool",
          "name": "",
          "type": "bool"
        }
      ],
      "stateMutability": "view",
      "type": "function"
    },
    {
      "inputs": [
        {
          "internalType": "address",
          "name": "addr",
          "type": "address"
        }
      ],
      "name": "isAuthenticated",
      "outputs": [
        {
          "internalType": "bool",
          "name": "",
          "type": "bool"
        }
      ],
      "stateMutability": "view",
      "type": "function"
    },
    {
      "inputs": [
        {
          "internalType": "uint256",
          "name": "tokenId",
          "type": "uint256"
        }
      ],
      "name": "isRedeemable",
      "outputs": [
        {
          "internalType": "bool",
          "name": "",
          "type": "bool"
        }
      ],
      "stateMutability": "view",
      "type": "function"
    },
    {
      "inputs": [
        {
          "internalType": "uint256",
          "name": "tokenId",
          "type": "uint256"
        }
      ],
      "name": "makeUnredeemable",
      "outputs": [],
      "stateMutability": "nonpayable",
      "type": "function"
    },
    {
      "inputs": [
        {
          "internalType": "address[]",
          "name": "addrs",
          "type": "address[]"
        }
      ],
      "name": "multiApprove",
      "outputs": [],
      "stateMutability": "nonpayable",
      "type": "function"
    },
    {
      "inputs": [
        {
          "internalType": "address",
          "name": "",
          "type": "address"
        },
        {
          "internalType": "address",
          "name": "",
          "type": "address"
        },
        {
          "internalType": "uint256",
          "name": "",
          "type": "uint256"
        },
        {
          "internalType": "bytes",
          "name": "",
          "type": "bytes"
        }
      ],
      "name": "onERC721Received",
      "outputs": [
        {
          "internalType": "bytes4",
          "name": "",
          "type": "bytes4"
        }
      ],
      "stateMutability": "view",
      "type": "function"
    },
    {
      "inputs": [
        {
          "internalType": "uint256",
          "name": "tokenId",
          "type": "uint256"
        }
      ],
      "name": "rejectRedeem",
      "outputs": [],
      "stateMutability": "nonpayable",
      "type": "function"
    },
    {
      "inputs": [
        {
          "internalType": "uint256",
          "name": "tokenId",
          "type": "uint256"
        },
        {
          "internalType": "bytes",
          "name": "redemption",
          "type": "bytes"
        },
        {
          "internalType": "bytes",
          "name": "theirKey",
          "type": "bytes"
        }
      ],
      "name": "requestToken",
      "outputs": [],
      "stateMutability": "nonpayable",
      "type": "function"
    },
    {
      "inputs": [
        {
          "internalType": "address",
          "name": "addr",
          "type": "address"
        },
        {
          "internalType": "bool",
          "name": "value",
          "type": "bool"
        }
      ],
      "name": "setPrivilages",
      "outputs": [],
      "stateMutability": "nonpayable",
      "type": "function"
    },
    {
      "inputs": [
        {
          "internalType": "address",
          "name": "addr",
          "type": "address"
        },
        {
          "internalType": "bool",
          "name": "value",
          "type": "bool"
        }
      ],
      "name": "setWalletBlocked",
      "outputs": [],
      "stateMutability": "nonpayable",
      "type": "function"
    },
    {
      "inputs": [
        {
          "internalType": "address",
          "name": "addr",
          "type": "address"
        }
      ],
      "name": "transferOwnership",
      "outputs": [],
      "stateMutability": "nonpayable",
      "type": "function"
    }
  ],
  "transactionHash": "0xc4de90f76993ec8af7981b2b784ea3b93757a404f1fafd6e6298ae2cc0a7e3d5",
  "args": [
    "0x10366BCA28A12318dC5AB0593320Bf55617e77bd"
  ],
  "numDeployments": 1,
  "solcInputHash": "6e9aa7b6a6e3ea130e840e49f0c21c0a",
  "bytecode": "0x608060405234801561001057600080fd5b50604051620025153803806200251583398101604081905261003191610081565b60008054336001600160a01b0319918216811783558252600260205260408220805460ff1916600190811790915591909155600380549091166001600160a01b03929092169190911790556100b1565b60006020828403121561009357600080fd5b81516001600160a01b03811681146100aa57600080fd5b9392505050565b61245480620000c16000396000f3fe608060405234801561001057600080fd5b50600436106101285760003560e01c806310a8c7a91461012d578063150b7a021461014257806326f72ec81461017357806353565824146101d357806372c94b5c146101e65780637918d3fe146101f95780637cc9c1ac146102195780637e9cbd3b1461022c57806382adf9c51461023f5780638474a7e1146102525780638611cb671461027257806394b591af1461029d578063a7771ea5146102b0578063ada49963146102d3578063b904c3ba146102f4578063c58343ef14610307578063cf7a53a114610327578063d15d41501461032f578063d5f3948814610342578063d8b964e614610355578063e2ad3eb014610378578063f2fde38b1461038b578063f48cc3261461039e578063fe684c0e146103b1575b600080fd5b61014061013b366004611d18565b6103c4565b005b610155610150366004611db6565b610464565b6040516001600160e01b031990911681526020015b60405180910390f35b610186610181366004611e54565b6104bb565b60405161016a919081516001600160a01b03908116825260208084015190911690820152604080830151908201526060808301519082015260809182015115159181019190915260a00190565b6101406101e1366004611e54565b6105ee565b6101406101f4366004611edc565b610792565b61020c610207366004611e54565b610cfd565b60405161016a9190611f22565b610140610227366004611f68565b610e00565b61014061023a366004611edc565b61117a565b61014061024d366004611e54565b61130f565b610265610260366004611e54565b6113e9565b60405161016a9190612021565b610285610280366004611e54565b6114ce565b6040516001600160a01b03909116815260200161016a565b6101406102ab3660046120c5565b61150b565b6102c36102be366004611e54565b6115ff565b604051901515815260200161016a565b6102e66102e1366004612173565b611617565b60405190815260200161016a565b6102c3610302366004611e54565b611678565b61031a610315366004611e54565b611695565b60405161016a9190612190565b6102e66118b7565b6102c361033d366004612173565b6118d7565b600054610285906001600160a01b031681565b6102c3610363366004612173565b60026020526000908152604090205460ff1681565b610140610386366004612202565b611912565b610140610399366004612173565b611981565b6102c36103ac366004611e54565b611a21565b6101406103bf366004612202565b611a43565b6000546001600160a01b031633146103f75760405162461bcd60e51b81526004016103ee9061223b565b60405180910390fd5b805161040257600080fd5b60005b81518110156104605760016002600084848151811061042657610426612261565b6020908102919091018101516001600160a01b03168252810191909152604001600020805460ff1916911515919091179055600101610405565b5050565b600080546001600160a01b031633148061048d57503360009081526002602052604090205460ff165b6104a95760405162461bcd60e51b81526004016103ee90612277565b50630a85bd0160e11b95945050505050565b6040805160a0810182526000808252602082018190529181018290526060810182905260808101919091526104ef826115ff565b6105335760405162461bcd60e51b81526020600482015260156024820152741a185cc81b9bdd081899595b881c995919595b5959605a1b60448201526064016103ee565b6000828152600660205260409020546001600160a01b0316336001600160a01b0316148061057057503360009081526002602052604090205460ff165b8061058557506000546001600160a01b031633145b61058e57600080fd5b50600090815260066020908152604091829020825160a08101845281546001600160a01b039081168252600183015416928101929092526002810154928201929092526003820154606082015260049091015460ff161515608082015290565b6000546001600160a01b031633148061061657503360009081526002602052604090205460ff165b6106325760405162461bcd60e51b81526004016103ee90612277565b60008181526005602052604090206003015460ff166106635760405162461bcd60e51b81526004016103ee9061229d565b6000818152600460205260409020805461067c906122c6565b1515905061069c5760405162461bcd60e51b81526004016103ee90612301565b6000818152600560209081526040808320546001600160a01b031680845260079092529091205415610707576001600160a01b0381166000908152600760205260409020546106ed9060019061234c565b6001600160a01b0382166000908152600760205260409020555b600082815260056020526040812080546001600160a01b0319168155906107316001830182611bc7565b61073f600283016000611bc7565b50600301805460ff191690556001600160a01b0381167f0b7cdc900b8ac2bfb0d3b2139ecf8be43e21bb1c2e2380190243786c5c5bd3d38333604051610786929190612363565b60405180910390a25050565b6000546001600160a01b03163314806107ba57503360009081526002602052604090205460ff165b6107d65760405162461bcd60e51b81526004016103ee90612277565b60018060008282546107e8919061237a565b909155505060015460008381526005602052604090206003015460ff166108215760405162461bcd60e51b81526004016103ee9061229d565b6000838152600460205260409020805461083a906122c6565b1515905061085a5760405162461bcd60e51b81526004016103ee90612301565b60008381526006602052604090206004015460ff161561088c5760405162461bcd60e51b81526004016103ee90612392565b6000838152600460205260409020805461092e9184916108ab906122c6565b80601f01602080910402602001604051908101604052809291908181526020018280546108d7906122c6565b80156109245780601f106108f957610100808354040283529160200191610924565b820191906000526020600020905b81548152906001019060200180831161090757829003601f168201915b5050505050611b25565b6109695760405162461bcd60e51b815260206004820152600c60248201526b18da1958dac819985a5b195960a21b60448201526064016103ee565b600083815260056020908152604080832081516080810190925280546001600160a01b0316825260018101805492939192918401916109a7906122c6565b80601f01602080910402602001604051908101604052809291908181526020018280546109d3906122c6565b8015610a205780601f106109f557610100808354040283529160200191610a20565b820191906000526020600020905b815481529060010190602001808311610a0357829003601f168201915b50505050508152602001600282018054610a39906122c6565b80601f0160208091040260200160405190810160405280929190818152602001828054610a65906122c6565b8015610ab25780601f10610a8757610100808354040283529160200191610ab2565b820191906000526020600020905b815481529060010190602001808311610a9557829003601f168201915b50505091835250506003919091015460ff161515602091820152600086815260059091526040812080546001600160a01b0319168155919250610af86001830182611bc7565b610b06600283016000611bc7565b506003908101805460ff199081169091556040805160a08101825284516001600160a01b03908116825233602080840191825242848601908152606085018c815260016080870181815260008f815260068652898120985189549089166001600160a01b0319918216178a55965192890180549389169390971692909217909555915160028701555197850197909755905160049093018054931515939095169290921790935560058152818420549092168352600790915290205415610c085780516001600160a01b0316600090815260076020526040902054610bed9060019061234c565b81516001600160a01b03166000908152600760205260409020555b6003548151604051632142170760e11b81523060048201526001600160a01b039182166024820152604481018790529116906342842e0e90606401600060405180830381600087803b158015610c5d57600080fd5b505af1158015610c71573d6000803e3d6000fd5b505082516001600160a01b031691507fc304de2ee997fd24fdfed24b05b8a4f183098cf2178adca7bd77238f65f84a2290508533604051610cb3929190612363565b60405180910390a2506001548114610cf85760405162461bcd60e51b815260206004820152600860248201526772652d656e74727960c01b60448201526064016103ee565b505050565b6040805160038082526080820190925260609160208201838036833701905050604051637a46619360e11b815260048101849052909150309063f48cc32690602401602060405180830381865afa158015610d5c573d6000803e3d6000fd5b505050506040513d601f19601f82011682018060405250810190610d8091906123c9565b81600081518110610d9357610d93612261565b91151560209283029190910190910152610dac826115ff565b81600181518110610dbf57610dbf612261565b91151560209283029190910190910152610dd882611678565b81600281518110610deb57610deb612261565b91151560209283029190910190910152919050565b333b15610e4f5760405162461bcd60e51b815260206004820152601d60248201527f63616e6e6f7420626520696e766f6b656420627920636f6e747261637400000060448201526064016103ee565b3360009081526008602052604090205460ff1615610eba5760405162461bcd60e51b815260206004820152602260248201527f63616e6e6f742072656465656d206120746f6b656e20617420746869732074696044820152616d6560f01b60648201526084016103ee565b3360009081526007602052604090205460031015610f2f5760405162461bcd60e51b815260206004820152602c60248201527f796f75206861766520746f6f206d616e79207265717565737473206f70656e2060448201526b617420746869732074696d6560a01b60648201526084016103ee565b60008381526006602052604090206004015460ff1615610f615760405162461bcd60e51b81526004016103ee90612392565b60008381526004602052604090208054610f7a906122c6565b15159050610f9a5760405162461bcd60e51b81526004016103ee90612301565b60008381526005602052604090206003015460ff16156110085760405162461bcd60e51b815260206004820152602360248201527f7265717565737420616c7265616479206f70656e20666f72207468697320746f60448201526235b2b760e91b60648201526084016103ee565b600083815260046020526040902080546110279184916108ab906122c6565b6110675760405162461bcd60e51b81526020600482015260116024820152701d985b1a59185d1a5bdb8819985a5b1959607a1b60448201526064016103ee565b60405180608001604052806110793390565b6001600160a01b039081168252602080830186905260408084018690526001606090940184905260008881526005835220845181546001600160a01b031916931692909217825583810151805192936110da93908501929190910190611c01565b50604082015180516110f6916002840191602090910190611c01565b50606091909101516003909101805460ff19169115159190911790553360009081526007602052604090205461112d90600161237a565b33600081815260076020908152604091829020939093555185815290917f67da995c6df7166078290dae7ac4f9c90eeb269d051c434663949b26f04dba1d910160405180910390a2505050565b6000546001600160a01b03163314806111a257503360009081526002602052604090205460ff165b6111be5760405162461bcd60e51b81526004016103ee90612277565b600082815260046020526040902080546111d7906122c6565b1590506112145760405162461bcd60e51b815260206004820152600b60248201526a185b1c9958591e481cd95d60aa1b60448201526064016103ee565b6003546040516331a9108f60e11b81526004810184905230916001600160a01b031690636352211e90602401602060405180830381865afa15801561125d573d6000803e3d6000fd5b505050506040513d601f19601f8201168201806040525081019061128191906123e6565b6001600160a01b0316146112f05760405162461bcd60e51b815260206004820152603060248201527f706c65617365207472616e736665722074686520746f6b656e20746f2074686960448201526f1cc818dbdb9d1c9858dd08199a5c9cdd60821b60648201526084016103ee565b60008281526004602090815260409091208251610cf892840190611c01565b60008181526004602052604090208054611328906122c6565b1515905061136d5760405162461bcd60e51b81526020600482015260126024820152716d7573742062652072656465656d61626c6560701b60448201526064016103ee565b60008181526006602052604090206004015460ff16156113cf5760405162461bcd60e51b815260206004820152601e60248201527f616c72656164792072656465656d65642063616e6e6f74206368616e6765000060448201526064016103ee565b60008181526004602052604081206113e691611bc7565b50565b6000546060906001600160a01b031633148061141457503360009081526002602052604090205460ff165b6114305760405162461bcd60e51b81526004016103ee90612277565b60008281526004602052604090208054611449906122c6565b80601f0160208091040260200160405190810160405280929190818152602001828054611475906122c6565b80156114c25780601f10611497576101008083540402835291602001916114c2565b820191906000526020600020905b8154815290600101906020018083116114a557829003601f168201915b50505050509050919050565b60008181526005602052604081206003015460ff166114ef57506000919050565b506000908152600560205260409020546001600160a01b031690565b6000546001600160a01b031633148061153357503360009081526002602052604090205460ff165b61154f5760405162461bcd60e51b81526004016103ee90612277565b805182511461158b5760405162461bcd60e51b81526020600482015260086024820152670dad2e6dac2e8c6d60c31b60448201526064016103ee565b60005b8151811015610cf85760008382815181106115ab576115ab612261565b602002602001015190508282815181106115c7576115c7612261565b60200260200101516004600083815260200190815260200160002090805190602001906115f5929190611c01565b505060010161158e565b60009081526006602052604090206004015460ff1690565b600080546001600160a01b031633148061164057503360009081526002602052604090205460ff165b61165c5760405162461bcd60e51b81526004016103ee90612277565b506001600160a01b031660009081526007602052604090205490565b60009081526005602052604090206003015460ff16151560011490565b6116cb604051806080016040528060006001600160a01b0316815260200160608152602001606081526020016000151581525090565b3360009081526002602052604090205460ff16806116f357506000546001600160a01b031633145b8061170e575033611703836114ce565b6001600160a01b0316145b6117505760405162461bcd60e51b8152602060048201526013602482015272696e76616c6964207065726d697373696f6e7360681b60448201526064016103ee565b60008281526005602090815260409182902082516080810190935280546001600160a01b03168352600181018054919284019161178c906122c6565b80601f01602080910402602001604051908101604052809291908181526020018280546117b8906122c6565b80156118055780601f106117da57610100808354040283529160200191611805565b820191906000526020600020905b8154815290600101906020018083116117e857829003601f168201915b5050505050815260200160028201805461181e906122c6565b80601f016020809104026020016040519081016040528092919081815260200182805461184a906122c6565b80156118975780601f1061186c57610100808354040283529160200191611897565b820191906000526020600020905b81548152906001019060200180831161187a57829003601f168201915b50505091835250506003919091015460ff16151560209091015292915050565b6000336118c357600080fd5b503360009081526007602052604090205490565b600080546001600160a01b038381169116148061190c57506001600160a01b03821660009081526002602052604090205460ff165b92915050565b6000546001600160a01b031633148061193a57503360009081526002602052604090205460ff165b6119565760405162461bcd60e51b81526004016103ee90612277565b6001600160a01b03919091166000908152600860205260409020805460ff1916911515919091179055565b6000546001600160a01b031633146119ab5760405162461bcd60e51b81526004016103ee9061223b565b600080546001600160a01b03908116825260026020526040808320805460ff1990811690915583546001600160a01b03191692851692831784558284528184208054909116600117905551909133917f93091b3f3cd424efabc74e181f3799f3476ed758412561ed3b29515c51f567529190a350565b60008181526004602052604081208054611a3a906122c6565b15159392505050565b6000546001600160a01b03163314611a6d5760405162461bcd60e51b81526004016103ee9061223b565b6000546001600160a01b0383811691161415611ac45760405162461bcd60e51b815260206004820152601660248201527531b0b73737ba1036b7b234b33c903232b83637bcb2b960511b60448201526064016103ee565b6001600160a01b038216600081815260026020908152604091829020805460ff1916851515908117909155915191825233917ff38de818d000d07d091732dd783c6855722d7bc1934d92b7635133289d341695910160405180910390a35050565b8151815160009184918491908114611b43576000935050505061190c565b60005b81811015611bba57828181518110611b6057611b60612261565b602001015160f81c60f81b6001600160f81b031916848281518110611b8757611b87612261565b01602001516001600160f81b03191614611ba857600094505050505061190c565b80611bb281612403565b915050611b46565b5060019695505050505050565b508054611bd3906122c6565b6000825580601f10611be3575050565b601f0160209004906000526020600020908101906113e69190611c85565b828054611c0d906122c6565b90600052602060002090601f016020900481019282611c2f5760008555611c75565b82601f10611c4857805160ff1916838001178555611c75565b82800160010185558215611c75579182015b82811115611c75578251825591602001919060010190611c5a565b50611c81929150611c85565b5090565b5b80821115611c815760008155600101611c86565b634e487b7160e01b600052604160045260246000fd5b604051601f8201601f191681016001600160401b0381118282101715611cd857611cd8611c9a565b604052919050565b60006001600160401b03821115611cf957611cf9611c9a565b5060051b60200190565b6001600160a01b03811681146113e657600080fd5b60006020808385031215611d2b57600080fd5b82356001600160401b03811115611d4157600080fd5b8301601f81018513611d5257600080fd5b8035611d65611d6082611ce0565b611cb0565b81815260059190911b82018301908381019087831115611d8457600080fd5b928401925b82841015611dab578335611d9c81611d03565b82529284019290840190611d89565b979650505050505050565b600080600080600060808688031215611dce57600080fd5b8535611dd981611d03565b94506020860135611de981611d03565b93506040860135925060608601356001600160401b0380821115611e0c57600080fd5b818801915088601f830112611e2057600080fd5b813581811115611e2f57600080fd5b896020828501011115611e4157600080fd5b9699959850939650602001949392505050565b600060208284031215611e6657600080fd5b5035919050565b600082601f830112611e7e57600080fd5b81356001600160401b03811115611e9757611e97611c9a565b611eaa601f8201601f1916602001611cb0565b818152846020838601011115611ebf57600080fd5b816020850160208301376000918101602001919091529392505050565b60008060408385031215611eef57600080fd5b8235915060208301356001600160401b03811115611f0c57600080fd5b611f1885828601611e6d565b9150509250929050565b6020808252825182820181905260009190848201906040850190845b81811015611f5c578351151583529284019291840191600101611f3e565b50909695505050505050565b600080600060608486031215611f7d57600080fd5b8335925060208401356001600160401b0380821115611f9b57600080fd5b611fa787838801611e6d565b93506040860135915080821115611fbd57600080fd5b50611fca86828701611e6d565b9150509250925092565b6000815180845260005b81811015611ffa57602081850181015186830182015201611fde565b8181111561200c576000602083870101525b50601f01601f19169290920160200192915050565b6020815260006120346020830184611fd4565b9392505050565b600082601f83011261204c57600080fd5b8135602061205c611d6083611ce0565b82815260059290921b8401810191818101908684111561207b57600080fd5b8286015b848110156120ba5780356001600160401b0381111561209e5760008081fd5b6120ac8986838b0101611e6d565b84525091830191830161207f565b509695505050505050565b600080604083850312156120d857600080fd5b82356001600160401b03808211156120ef57600080fd5b818501915085601f83011261210357600080fd5b81356020612113611d6083611ce0565b82815260059290921b8401810191818101908984111561213257600080fd5b948201945b8386101561215057853582529482019490820190612137565b9650508601359250508082111561216657600080fd5b50611f188582860161203b565b60006020828403121561218557600080fd5b813561203481611d03565b602080825282516001600160a01b031682820152820151608060408301526000906121be60a0840182611fd4565b90506040840151601f198483030160608501526121db8282611fd4565b9150506060840151151560808401528091505092915050565b80151581146113e657600080fd5b6000806040838503121561221557600080fd5b823561222081611d03565b91506020830135612230816121f4565b809150509250929050565b6020808252600c908201526b3737ba103232b83637bcb2b960a11b604082015260600190565b634e487b7160e01b600052603260045260246000fd5b6020808252600c908201526b1b9bdd08185c1c1c9bdd995960a21b604082015260600190565b6020808252600f908201526e1a5b9d985b1a59081c995c5d595cdd608a1b604082015260600190565b600181811c908216806122da57607f821691505b602082108114156122fb57634e487b7160e01b600052602260045260246000fd5b50919050565b6020808252601b908201527a1a5b9d985b1a59081c9959195b5c1d1a5bdb881d1bdad95b881a59602a1b604082015260600190565b634e487b7160e01b600052601160045260246000fd5b60008282101561235e5761235e612336565b500390565b9182526001600160a01b0316602082015260400190565b6000821982111561238d5761238d612336565b500190565b6020808252601f908201527f746f6b656e2068617320616c7265616479206265656e2072656465656d656400604082015260600190565b6000602082840312156123db57600080fd5b8151612034816121f4565b6000602082840312156123f857600080fd5b815161203481611d03565b600060001982141561241757612417612336565b506001019056fea2646970667358221220139604102542272a4aa9b651e3a69ba69bb2c0cb36e9af0a97f61225ba8da7cb64736f6c634300080c0033",
  "libraries": {
    "InfinityMintUtil": "0x7299e305fDFDC45D37bE4Af27Fc3b030ECb9Ea80"
  },
  "devdoc": {
    "kind": "dev",
    "methods": {},
    "version": 1
  },
  "userdoc": {
    "kind": "user",
    "methods": {
      "approveRedeem(uint256,bytes)": {
        "notice": "Approves a request to redeem a token"
      },
      "onERC721Received(address,address,uint256,bytes)": {
        "notice": "Allows this redemption contract to receive ERC721 from approved addresses only"
      },
      "rejectRedeem(uint256)": {
        "notice": "Rejects a request to redeem a token"
      },
      "requestToken(uint256,bytes,bytes)": {
        "notice": "Requests a token to be transfered to the sender"
      }
    },
    "version": 1
  },
  "storageLayout": {
    "storage": [
      {
        "astId": 458,
        "contract": "contracts/__mods/Mod_Redemption.sol:Mod_Redemption",
        "label": "deployer",
        "offset": 0,
        "slot": "0",
        "type": "t_address"
      },
      {
        "astId": 461,
        "contract": "contracts/__mods/Mod_Redemption.sol:Mod_Redemption",
        "label": "executionCount",
        "offset": 0,
        "slot": "1",
        "type": "t_uint256"
      },
      {
        "astId": 465,
        "contract": "contracts/__mods/Mod_Redemption.sol:Mod_Redemption",
        "label": "approved",
        "offset": 0,
        "slot": "2",
        "type": "t_mapping(t_address,t_bool)"
      },
      {
        "astId": 10086,
        "contract": "contracts/__mods/Mod_Redemption.sol:Mod_Redemption",
        "label": "erc721",
        "offset": 0,
        "slot": "3",
        "type": "t_contract(IERC721)1441"
      },
      {
        "astId": 10090,
        "contract": "contracts/__mods/Mod_Redemption.sol:Mod_Redemption",
        "label": "activeRedemptions",
        "offset": 0,
        "slot": "4",
        "type": "t_mapping(t_uint256,t_bytes_storage)"
      },
      {
        "astId": 10095,
        "contract": "contracts/__mods/Mod_Redemption.sol:Mod_Redemption",
        "label": "requests",
        "offset": 0,
        "slot": "5",
        "type": "t_mapping(t_uint256,t_struct(Request)10117_storage)"
      },
      {
        "astId": 10100,
        "contract": "contracts/__mods/Mod_Redemption.sol:Mod_Redemption",
        "label": "successfulRedemptions",
        "offset": 0,
        "slot": "6",
        "type": "t_mapping(t_uint256,t_struct(SuccessfulRedemption)10128_storage)"
      },
      {
        "astId": 10104,
        "contract": "contracts/__mods/Mod_Redemption.sol:Mod_Redemption",
        "label": "requestCount",
        "offset": 0,
        "slot": "7",
        "type": "t_mapping(t_address,t_uint256)"
      },
      {
        "astId": 10108,
        "contract": "contracts/__mods/Mod_Redemption.sol:Mod_Redemption",
        "label": "blockedWallets",
        "offset": 0,
        "slot": "8",
        "type": "t_mapping(t_address,t_bool)"
      }
    ],
    "types": {
      "t_address": {
        "encoding": "inplace",
        "label": "address",
        "numberOfBytes": "20"
      },
      "t_bool": {
        "encoding": "inplace",
        "label": "bool",
        "numberOfBytes": "1"
      },
      "t_bytes_storage": {
        "encoding": "bytes",
        "label": "bytes",
        "numberOfBytes": "32"
      },
      "t_contract(IERC721)1441": {
        "encoding": "inplace",
        "label": "contract IERC721",
        "numberOfBytes": "20"
      },
      "t_mapping(t_address,t_bool)": {
        "encoding": "mapping",
        "key": "t_address",
        "label": "mapping(address => bool)",
        "numberOfBytes": "32",
        "value": "t_bool"
      },
      "t_mapping(t_address,t_uint256)": {
        "encoding": "mapping",
        "key": "t_address",
        "label": "mapping(address => uint256)",
        "numberOfBytes": "32",
        "value": "t_uint256"
      },
      "t_mapping(t_uint256,t_bytes_storage)": {
        "encoding": "mapping",
        "key": "t_uint256",
        "label": "mapping(uint256 => bytes)",
        "numberOfBytes": "32",
        "value": "t_bytes_storage"
      },
      "t_mapping(t_uint256,t_struct(Request)10117_storage)": {
        "encoding": "mapping",
        "key": "t_uint256",
        "label": "mapping(uint256 => struct Mod_Redemption.Request)",
        "numberOfBytes": "32",
        "value": "t_struct(Request)10117_storage"
      },
      "t_mapping(t_uint256,t_struct(SuccessfulRedemption)10128_storage)": {
        "encoding": "mapping",
        "key": "t_uint256",
        "label": "mapping(uint256 => struct Mod_Redemption.SuccessfulRedemption)",
        "numberOfBytes": "32",
        "value": "t_struct(SuccessfulRedemption)10128_storage"
      },
      "t_struct(Request)10117_storage": {
        "encoding": "inplace",
        "label": "struct Mod_Redemption.Request",
        "members": [
          {
            "astId": 10110,
            "contract": "contracts/__mods/Mod_Redemption.sol:Mod_Redemption",
            "label": "sender",
            "offset": 0,
            "slot": "0",
            "type": "t_address"
          },
          {
            "astId": 10112,
            "contract": "contracts/__mods/Mod_Redemption.sol:Mod_Redemption",
            "label": "redemption",
            "offset": 0,
            "slot": "1",
            "type": "t_bytes_storage"
          },
          {
            "astId": 10114,
            "contract": "contracts/__mods/Mod_Redemption.sol:Mod_Redemption",
            "label": "key",
            "offset": 0,
            "slot": "2",
            "type": "t_bytes_storage"
          },
          {
            "astId": 10116,
            "contract": "contracts/__mods/Mod_Redemption.sol:Mod_Redemption",
            "label": "valid",
            "offset": 0,
            "slot": "3",
            "type": "t_bool"
          }
        ],
        "numberOfBytes": "128"
      },
      "t_struct(SuccessfulRedemption)10128_storage": {
        "encoding": "inplace",
        "label": "struct Mod_Redemption.SuccessfulRedemption",
        "members": [
          {
            "astId": 10119,
            "contract": "contracts/__mods/Mod_Redemption.sol:Mod_Redemption",
            "label": "receiver",
            "offset": 0,
            "slot": "0",
            "type": "t_address"
          },
          {
            "astId": 10121,
            "contract": "contracts/__mods/Mod_Redemption.sol:Mod_Redemption",
            "label": "admin",
            "offset": 0,
            "slot": "1",
            "type": "t_address"
          },
          {
            "astId": 10123,
            "contract": "contracts/__mods/Mod_Redemption.sol:Mod_Redemption",
            "label": "time",
            "offset": 0,
            "slot": "2",
            "type": "t_uint256"
          },
          {
            "astId": 10125,
            "contract": "contracts/__mods/Mod_Redemption.sol:Mod_Redemption",
            "label": "tokenId",
            "offset": 0,
            "slot": "3",
            "type": "t_uint256"
          },
          {
            "astId": 10127,
            "contract": "contracts/__mods/Mod_Redemption.sol:Mod_Redemption",
            "label": "valid",
            "offset": 0,
            "slot": "4",
            "type": "t_bool"
          }
        ],
        "numberOfBytes": "160"
      },
      "t_uint256": {
        "encoding": "inplace",
        "label": "uint256",
        "numberOfBytes": "32"
      }
    }
  }
}