{
  "address": "0xa71CB00ceBdb6Aa319cCA14DC63BD7B752B03fe8",
  "abi": [
    {
      "inputs": [
        {
          "internalType": "uint32",
          "name": "seedNumber",
          "type": "uint32"
        },
        {
          "internalType": "address",
          "name": "valuesContract",
          "type": "address"
        }
      ],
      "stateMutability": "nonpayable",
      "type": "constructor"
    },
    {
      "inputs": [
        {
          "internalType": "uint256",
          "name": "maxNumber",
          "type": "uint256"
        }
      ],
      "name": "getMaxNumber",
      "outputs": [
        {
          "internalType": "uint256",
          "name": "",
          "type": "uint256"
        }
      ],
      "stateMutability": "nonpayable",
      "type": "function"
    },
    {
      "inputs": [],
      "name": "getNumber",
      "outputs": [
        {
          "internalType": "uint256",
          "name": "",
          "type": "uint256"
        }
      ],
      "stateMutability": "nonpayable",
      "type": "function"
    },
    {
      "inputs": [],
      "name": "hasDeployed",
      "outputs": [
        {
          "internalType": "bool",
          "name": "",
          "type": "bool"
        }
      ],
      "stateMutability": "view",
      "type": "function"
    },
    {
      "inputs": [],
      "name": "randomnessFactor",
      "outputs": [
        {
          "internalType": "uint256",
          "name": "",
          "type": "uint256"
        }
      ],
      "stateMutability": "view",
      "type": "function"
    },
    {
      "inputs": [
        {
          "internalType": "uint256",
          "name": "maxNumber",
          "type": "uint256"
        },
        {
          "internalType": "uint256",
          "name": "_salt",
          "type": "uint256"
        }
      ],
      "name": "returnNumber",
      "outputs": [
        {
          "internalType": "uint256",
          "name": "",
          "type": "uint256"
        }
      ],
      "stateMutability": "view",
      "type": "function"
    },
    {
      "inputs": [],
      "name": "salt",
      "outputs": [
        {
          "internalType": "uint256",
          "name": "",
          "type": "uint256"
        }
      ],
      "stateMutability": "view",
      "type": "function"
    }
  ],
  "transactionHash": "0xfe6cc11a56d592d70e13f1ca25217fac8738abaff9aaa9fa67b98591ba94f478",
  "args": [
    256,
    "0x2d65a808DBB7F6fF5d7815F7c0D26cb0B7d8149e"
  ],
  "numDeployments": 1,
  "solcInputHash": "b0f3f5743d043d6d0147204e57adad5c",
  "bytecode": "0x60806040526001805460ff1916815560025562be135560045534801561002457600080fd5b5060405161046f38038061046f833981016040819052610043916100f4565b600380546001600160a01b0319166001600160a01b0383169081179091556040516304b01c2560e51b815260206004820152600f60248201526e3930b73237b6b2b9b9a330b1ba37b960891b604482015282919063960384a090606401602060405180830381865afa1580156100bd573d6000803e3d6000fd5b505050506040513d601f19601f820116820180604052508101906100e19190610143565b600055505063ffffffff1660045561015c565b6000806040838503121561010757600080fd5b825163ffffffff8116811461011b57600080fd5b60208401519092506001600160a01b038116811461013857600080fd5b809150509250929050565b60006020828403121561015557600080fd5b5051919050565b6103048061016b6000396000f3fe608060405234801561001057600080fd5b50600436106100625760003560e01c806307aaf42d146100675780634b0c7aad14610089578063a0d0ca0f146100aa578063bfa0b133146100bd578063ceb42337146100c6578063f2c9ecd8146100cf575b600080fd5b6001546100749060ff1681565b60405190151581526020015b60405180910390f35b61009c610097366004610264565b6100d7565b604051908152602001610080565b61009c6100b8366004610286565b610171565b61009c60025481565b61009c60005481565b61009c61018a565b60008083116100e557600192505b600454600080546040805160208101949094528301859052606083018690524460808401524360a08401524260c08401523360e084015261010083015290610120016040516020818303038152906040528051906020012060001c905060008061014f8387610233565b91509150811561016357925061016b915050565b600093505050505b92915050565b600280546001019081905560009061016b9083906100d7565b6002805460010190556003546040516304b01c2560e51b815260206004820152600f60248201526e36b0bc2930b73237b6a73ab6b132b960891b604482015260009161022e916001600160a01b039091169063960384a090606401602060405180830381865afa158015610202573d6000803e3d6000fd5b505050506040513d601f19601f82011682018060405250810190610226919061029f565b6002546100d7565b905090565b600080826102465750600090508061025d565b6001838581610257576102576102b8565b06915091505b9250929050565b6000806040838503121561027757600080fd5b50508035926020909101359150565b60006020828403121561029857600080fd5b5035919050565b6000602082840312156102b157600080fd5b5051919050565b634e487b7160e01b600052601260045260246000fdfea2646970667358221220d3ed90d65b1b019ca40dd56b6268b8338778e9841f470c61deef5a81fa4d34d964736f6c634300080c0033",
  "libraries": {
    "InfinityMintUtil": "0xd7fcAa6A3e68e4eDAb6eA551594cF60CCe436F73"
  },
  "devdoc": {
    "kind": "dev",
    "methods": {},
    "version": 1
  },
  "userdoc": {
    "kind": "user",
    "methods": {
      "returnNumber(uint256,uint256)": {
        "notice": "cheap return number"
      }
    },
    "version": 1
  },
  "storageLayout": {
    "storage": [
      {
        "astId": 8006,
        "contract": "contracts/random/UnsafeRandom.sol:UnsafeRandom",
        "label": "randomnessFactor",
        "offset": 0,
        "slot": "0",
        "type": "t_uint256"
      },
      {
        "astId": 8009,
        "contract": "contracts/random/UnsafeRandom.sol:UnsafeRandom",
        "label": "hasDeployed",
        "offset": 0,
        "slot": "1",
        "type": "t_bool"
      },
      {
        "astId": 8012,
        "contract": "contracts/random/UnsafeRandom.sol:UnsafeRandom",
        "label": "salt",
        "offset": 0,
        "slot": "2",
        "type": "t_uint256"
      },
      {
        "astId": 8015,
        "contract": "contracts/random/UnsafeRandom.sol:UnsafeRandom",
        "label": "valuesController",
        "offset": 0,
        "slot": "3",
        "type": "t_contract(InfinityMintValues)7222"
      },
      {
        "astId": 14545,
        "contract": "contracts/random/UnsafeRandom.sol:UnsafeRandom",
        "label": "numberSeed",
        "offset": 0,
        "slot": "4",
        "type": "t_uint256"
      }
    ],
    "types": {
      "t_bool": {
        "encoding": "inplace",
        "label": "bool",
        "numberOfBytes": "1"
      },
      "t_contract(InfinityMintValues)7222": {
        "encoding": "inplace",
        "label": "contract InfinityMintValues",
        "numberOfBytes": "20"
      },
      "t_uint256": {
        "encoding": "inplace",
        "label": "uint256",
        "numberOfBytes": "32"
      }
    }
  }
}